{
  "contractName": "TestClient",
  "abi": [
    {
      "inputs": [
        {
          "name": "tokenAddress",
          "type": "address"
        },
        {
          "name": "dispatchAddress",
          "type": "address"
        },
        {
          "name": "bondageAddress",
          "type": "address"
        },
        {
          "name": "registryAddress",
          "type": "address"
        }
      ],
      "payable": false,
      "stateMutability": "nonpayable",
      "type": "constructor"
    },
    {
      "anonymous": false,
      "inputs": [
        {
          "indexed": false,
          "name": "id",
          "type": "uint256"
        },
        {
          "indexed": false,
          "name": "response1",
          "type": "string"
        }
      ],
      "name": "Result1",
      "type": "event"
    },
    {
      "anonymous": false,
      "inputs": [
        {
          "indexed": false,
          "name": "id",
          "type": "uint256"
        },
        {
          "indexed": false,
          "name": "response1",
          "type": "bytes32"
        }
      ],
      "name": "Result1",
      "type": "event"
    },
    {
      "anonymous": false,
      "inputs": [
        {
          "indexed": false,
          "name": "id",
          "type": "uint256"
        },
        {
          "indexed": false,
          "name": "response1",
          "type": "string"
        },
        {
          "indexed": false,
          "name": "response2",
          "type": "string"
        }
      ],
      "name": "Result2",
      "type": "event"
    },
    {
      "constant": false,
      "inputs": [
        {
          "name": "id",
          "type": "uint256"
        },
        {
          "name": "response",
          "type": "bytes32[]"
        }
      ],
      "name": "callback",
      "outputs": [],
      "payable": false,
      "stateMutability": "nonpayable",
      "type": "function"
    },
    {
      "constant": false,
      "inputs": [
        {
          "name": "id",
          "type": "uint256"
        },
        {
          "name": "response1",
          "type": "string"
        }
      ],
      "name": "callback",
      "outputs": [],
      "payable": false,
      "stateMutability": "nonpayable",
      "type": "function"
    },
    {
      "constant": false,
      "inputs": [
        {
          "name": "id",
          "type": "uint256"
        },
        {
          "name": "response1",
          "type": "string"
        },
        {
          "name": "response2",
          "type": "string"
        }
      ],
      "name": "callback",
      "outputs": [],
      "payable": false,
      "stateMutability": "nonpayable",
      "type": "function"
    },
    {
      "constant": false,
      "inputs": [
        {
          "name": "oracleAddr",
          "type": "address"
        },
        {
          "name": "query",
          "type": "string"
        },
        {
          "name": "specifier",
          "type": "bytes32"
        },
        {
          "name": "params",
          "type": "bytes32[]"
        }
      ],
      "name": "testQuery",
      "outputs": [],
      "payable": false,
      "stateMutability": "nonpayable",
      "type": "function"
    }
  ],
  "bytecode": "0x608060405234801561001057600080fd5b5060405160808061069b83398101806040528101908080519060200190929190805190602001909291908051906020019092919080519060200190929190505050836000806101000a81548173ffffffffffffffffffffffffffffffffffffffff021916908373ffffffffffffffffffffffffffffffffffffffff16021790555082600160006101000a81548173ffffffffffffffffffffffffffffffffffffffff021916908373ffffffffffffffffffffffffffffffffffffffff16021790555081600260006101000a81548173ffffffffffffffffffffffffffffffffffffffff021916908373ffffffffffffffffffffffffffffffffffffffff16021790555080600360006101000a81548173ffffffffffffffffffffffffffffffffffffffff021916908373ffffffffffffffffffffffffffffffffffffffff16021790555050505050610534806101676000396000f300608060405260043610610062576000357c0100000000000000000000000000000000000000000000000000000000900463ffffffff16806363b41fe914610067578063b69a375d146100ac578063d075f20f146100f1578063f5795cd514610172575b600080fd5b34801561007357600080fd5b506100aa600480360381019080803590602001909291908035906020019082018035906020019190919293919293905050506101cf565b005b3480156100b857600080fd5b506100ef60048036038101908080359060200190929190803590602001908201803590602001919091929391929390505050610234565b005b3480156100fd57600080fd5b50610170600480360381019080803573ffffffffffffffffffffffffffffffffffffffff1690602001909291908035906020019082018035906020019190919293919293908035600019169060200190929190803590602001908201803590602001919091929391929390505050610315565b005b34801561017e57600080fd5b506101cd60048036038101908080359060200190929190803590602001908201803590602001919091929391929390803590602001908201803590602001919091929391929390505050610486565b005b7f5eef7b8de70c44e7326d1d7baa155450f5b38fc8d41309c12b2fc81817606b818383836000818110151561020057fe5b90506020020135600019166040518083815260200182600019166000191681526020019250505060405180910390a1505050565b606082828080601f01602080910402602001604051908101604052809392919081815260200183838082843782019150505050505090507f5d599109d8427016e4c93bff9b5f27e4cd24a83316a010d9ef7e15b7105d30e784826040518083815260200180602001828103825283818151815260200191508051906020019080838360005b838110156102d45780820151818401526020810190506102b9565b50505050905090810190601f1680156103015780820380516001836020036101000a031916815260200191505b50935050505060405180910390a150505050565b600160009054906101000a900473ffffffffffffffffffffffffffffffffffffffff1673ffffffffffffffffffffffffffffffffffffffff16639f77d6008787878787876001806040518963ffffffff167c0100000000000000000000000000000000000000000000000000000000028152600401808973ffffffffffffffffffffffffffffffffffffffff1673ffffffffffffffffffffffffffffffffffffffff16815260200180602001876000191660001916815260200180602001851515151581526020018415151515815260200183810383528a8a828181526020019250808284378201915050838103825287878281815260200192506020028082843782019150509a5050505050505050505050602060405180830381600087803b15801561044257600080fd5b505af1158015610456573d6000803e3d6000fd5b505050506040513d602081101561046c57600080fd5b810190808051906020019092919050505050505050505050565b7f0c98c7262dfd083f4b7cd58bc095ed2ef00c31ad4e6859d16be4c2b0f7fadeae8585858585604051808681526020018060200180602001838103835287878281815260200192508082843782019150508381038252858582818152602001925080828437820191505097505050505050505060405180910390a150505050505600a165627a7a723058203f358a6f98423926d0e31da2c2c16605b8234d3e315c8a89fe7d22124ad6d5e10029",
  "source": "pragma solidity ^0.4.24;\r\n\r\nimport \"./Client.sol\";\r\nimport \"../../platform/dispatch/DispatchInterface.sol\";\r\nimport \"../../platform/bondage/BondageInterface.sol\";\r\nimport \"../../platform/registry/RegistryInterface.sol\";\r\nimport \"./OnChainProvider.sol\";\r\nimport \"../ERC20.sol\";\r\n\r\ncontract TestProvider is OnChainProvider {\r\n\tevent RecievedQuery(string query, bytes32 endpoint, bytes32[] params);\r\n\r\n    event TEST(uint res, bytes32 b, string s);\r\n\r\n    bytes32 public spec1 = \"Hello?\";\r\n    bytes32 public spec2 = \"Reverse\";\r\n    bytes32 public spec3 = \"Add\";\r\n    bytes32 public spec4 = \"Double\";\r\n\r\n    /* Endpoints to Functions:\r\n    spec1: Hello? -> returns \"Hello World\"\r\n    spec2: Reverse -> returns the query string in reverse\r\n    spec3: Add -> Adds up the values in endpointParams \r\n    */\r\n\r\n    // curve 2x^2\r\n    int[] constants = [2, 2, 0];\r\n    uint[] parts = [0, 1000000000];\r\n    uint[] dividers = [1]; \r\n\r\n    RegistryInterface registry;\r\n\r\n    // middleware function for handling queries\r\n\tfunction receive(uint256 id, string userQuery, bytes32 endpoint, bytes32[] endpointParams, bool onchainSubscriber) external {\r\n        emit RecievedQuery(userQuery, endpoint, endpointParams);\r\n        if(onchainSubscriber) {\r\n            bytes32 hash = keccak256(endpoint);\r\n\r\n            if(hash == keccak256(spec1)){\r\n                endpoint1(id, userQuery, endpointParams);\r\n            } else if (hash == keccak256(spec2)){               \r\n                endpoint2(id, userQuery, endpointParams);\r\n            } else if (hash == keccak256(spec3)){\r\n                endpoint3(id, userQuery, endpointParams);\r\n            } else if (hash == keccak256(spec4)){\r\n                endpoint4(id, userQuery, endpointParams);\r\n            } else {\r\n                revert(\"Invalid endpoint\");\r\n            }\r\n        }\r\n\t}\r\n\r\n    constructor(address registryAddress) public{\r\n\r\n        registry = RegistryInterface(registryAddress);\r\n\r\n        // initialize in registry\r\n        bytes32 title = \"TestContract\";\r\n\r\n        bytes32[] memory params = new bytes32[](2);\r\n        params[0] = \"p1\";\r\n        params[1] = \"p2\";\r\n\r\n        registry.initiateProvider(12345, title, spec1, params);\r\n\r\n        registry.initiateProviderCurve(spec1, constants, parts, dividers);\r\n        registry.initiateProviderCurve(spec2, constants, parts, dividers);\r\n        registry.initiateProviderCurve(spec3, constants, parts, dividers);\r\n        registry.initiateProviderCurve(spec4, constants, parts, dividers);\r\n    }\r\n\r\n\r\n    // return Hello World to query-maker\r\n    function endpoint1(uint256 id, string userQuery, bytes32[] endpointParams) internal{\r\n        Dispatch(msg.sender).respond1(id, \"Hello World\");\r\n    }\r\n\r\n    // return the hash of the query\r\n    function endpoint2(uint256 id, string userQuery, bytes32[] endpointParams) internal{\r\n        // endpointParams\r\n        string memory reversed = reverseString(userQuery);\r\n        Dispatch(msg.sender).respond1(id, reversed);\r\n    }\r\n\r\n     // returns the sum of all values in endpointParams\r\n    function endpoint3(uint256 id, string userQuery, bytes32[] endpointParams) internal{\r\n        uint sum = 0;\r\n        for(uint i = 0; i<endpointParams.length; i++){\r\n            uint value = uint(endpointParams[i]);\r\n            sum += value;\r\n        }\r\n\r\n        bytes32[] memory res = new bytes32[](1);\r\n        res[0] = bytes32(sum);\r\n\r\n        Dispatch(msg.sender).respondBytes32Array(id, res);\r\n    }\r\n\r\n    // returns the sum of all values in endpointParams\r\n    function endpoint4(uint256 id, string userQuery, bytes32[] endpointParams) internal{\r\n        Dispatch(msg.sender).respond2(id, \"Hello\", \"World\");\r\n    }\r\n\r\n    // TODO: TEST OUT MORE RETURN VALUES (1,2,3 or 4)!\r\n\r\n\r\n\r\n    function reverseString(string _base) internal pure returns (string){\r\n        bytes memory _baseBytes = bytes(_base);\r\n        string memory _tempValue = new string(_baseBytes.length);\r\n        bytes memory _newValue = bytes(_tempValue);\r\n\r\n        for(uint i=0;i<_baseBytes.length;i++){\r\n            _newValue[ _baseBytes.length - i - 1] = _baseBytes[i];\r\n        }\r\n\r\n        return string(_newValue);\r\n    }\r\n\r\n\r\n    function bytes32ToString (bytes32 data) internal pure returns (string) {\r\n        bytes memory bytesString = new bytes(32);\r\n        for (uint j=0; j<32; j++) {\r\n            byte char = byte(bytes32(uint(data) * 2 ** (8 * j)));\r\n            if (char != 0) {\r\n                bytesString[j] = char;\r\n            }\r\n        }\r\n        return string(bytesString);\r\n    }\r\n\r\n}\r\n\r\n/* Test Subscriber Client */\r\ncontract TestClient is Client1, Client2{\r\n\r\n\tevent Result1(uint256 id, string response1);\r\n    event Result1(uint256 id, bytes32 response1);\r\n    event Result2(uint256 id, string response1, string response2);\r\n\r\n\tERC20 token;\r\n\tDispatchInterface dispatch;\r\n\tBondageInterface bondage;\r\n    RegistryInterface registry;\r\n\r\n\tconstructor(address tokenAddress, address dispatchAddress, address bondageAddress, address registryAddress) public {\r\n\t\ttoken = ERC20(tokenAddress);\r\n\t\tdispatch = DispatchInterface(dispatchAddress);\r\n\t\tbondage = BondageInterface(bondageAddress);\r\n        registry = RegistryInterface(registryAddress);\r\n\t}\r\n\r\n    /*\r\n    Implements overloaded callback functions for Client1\r\n    */\r\n    function callback(uint256 id, string response1) external {\r\n    \tstring memory _response1 = response1;\r\n    \temit Result1(id, _response1);\r\n        // do something with result\r\n    }\r\n\r\n    function callback(uint256 id, bytes32[] response) external {\r\n\r\n        emit Result1(id, response[0]);\r\n        // do something with result\r\n    }\r\n\r\n    // Client2 callback\r\n    function callback(uint256 id, string response1, string response2) external {\r\n        emit Result2(id, response1, response2);\r\n        // do something with result\r\n    }\r\n\r\n    function testQuery(address oracleAddr, string query, bytes32 specifier, bytes32[] params) external {\r\n    \tdispatch.query(oracleAddr, query, specifier, params, true, true);\r\n    }\r\n\r\n    function stringToBytes32(string memory source) internal pure returns (bytes32 result) {\r\n    \tbytes memory tempEmptyStringTest = bytes(source);\r\n\r\n    \tif (tempEmptyStringTest.length == 0) {\r\n    \t\treturn 0x0;\r\n    \t}\r\n    \tassembly {\r\n    \t\tresult := mload(add(source, 32))\r\n    \t}\r\n    }\r\n\r\n}\r\n",
  "sourcePath": "C:\\Assets\\Zap-monorepo\\packages\\Utils\\node_modules\\zap_contracts\\contracts\\lib\\platform\\TestContracts.sol",
  "compiler": {
    "name": "solc",
    "version": "0.4.24+commit.e67f0147.Emscripten.clang"
  },
  "schemaVersion": "2.0.1",
  "updatedAt": "2018-07-13T11:12:28.096Z"
}