{
  "contractName": "DispatchStorage",
  "abi": [
    {
      "constant": true,
      "inputs": [],
      "name": "owner",
      "outputs": [
        {
          "name": "",
          "type": "address"
        }
      ],
      "payable": false,
      "stateMutability": "view",
      "type": "function"
    },
    {
      "constant": false,
      "inputs": [
        {
          "name": "newOwner",
          "type": "address"
        }
      ],
      "name": "transferOwnership",
      "outputs": [],
      "payable": false,
      "stateMutability": "nonpayable",
      "type": "function"
    },
    {
      "anonymous": false,
      "inputs": [
        {
          "indexed": true,
          "name": "previousOwner",
          "type": "address"
        },
        {
          "indexed": true,
          "name": "newOwner",
          "type": "address"
        }
      ],
      "name": "OwnershipTransferred",
      "type": "event"
    },
    {
      "constant": true,
      "inputs": [
        {
          "name": "id",
          "type": "uint256"
        }
      ],
      "name": "getProvider",
      "outputs": [
        {
          "name": "",
          "type": "address"
        }
      ],
      "payable": false,
      "stateMutability": "view",
      "type": "function"
    },
    {
      "constant": true,
      "inputs": [
        {
          "name": "id",
          "type": "uint256"
        }
      ],
      "name": "getSubscriber",
      "outputs": [
        {
          "name": "",
          "type": "address"
        }
      ],
      "payable": false,
      "stateMutability": "view",
      "type": "function"
    },
    {
      "constant": true,
      "inputs": [
        {
          "name": "id",
          "type": "uint256"
        }
      ],
      "name": "getEndpoint",
      "outputs": [
        {
          "name": "",
          "type": "bytes32"
        }
      ],
      "payable": false,
      "stateMutability": "view",
      "type": "function"
    },
    {
      "constant": true,
      "inputs": [
        {
          "name": "id",
          "type": "uint256"
        }
      ],
      "name": "getStatus",
      "outputs": [
        {
          "name": "",
          "type": "uint8"
        }
      ],
      "payable": false,
      "stateMutability": "view",
      "type": "function"
    },
    {
      "constant": true,
      "inputs": [
        {
          "name": "id",
          "type": "uint256"
        }
      ],
      "name": "getUserQuery",
      "outputs": [
        {
          "name": "",
          "type": "string"
        }
      ],
      "payable": false,
      "stateMutability": "view",
      "type": "function"
    },
    {
      "constant": true,
      "inputs": [
        {
          "name": "id",
          "type": "uint256"
        }
      ],
      "name": "getSubscriberOnchain",
      "outputs": [
        {
          "name": "",
          "type": "bool"
        }
      ],
      "payable": false,
      "stateMutability": "view",
      "type": "function"
    },
    {
      "constant": false,
      "inputs": [
        {
          "name": "id",
          "type": "uint256"
        },
        {
          "name": "provider",
          "type": "address"
        },
        {
          "name": "subscriber",
          "type": "address"
        },
        {
          "name": "endpoint",
          "type": "bytes32"
        },
        {
          "name": "userQuery",
          "type": "string"
        },
        {
          "name": "onchainSubscriber",
          "type": "bool"
        }
      ],
      "name": "createQuery",
      "outputs": [],
      "payable": false,
      "stateMutability": "nonpayable",
      "type": "function"
    },
    {
      "constant": false,
      "inputs": [
        {
          "name": "id",
          "type": "uint256"
        }
      ],
      "name": "setFulfilled",
      "outputs": [],
      "payable": false,
      "stateMutability": "nonpayable",
      "type": "function"
    }
  ],
  "bytecode": "0x6080604052336000806101000a81548173ffffffffffffffffffffffffffffffffffffffff021916908373ffffffffffffffffffffffffffffffffffffffff160217905550610b1a806100536000396000f3006080604052600436106100a4576000357c0100000000000000000000000000000000000000000000000000000000900463ffffffff16806325df1e77146100a957806336f406cd1461011657806337a8c560146101b55780635c42d079146101fa5780635c622a0e146102675780636e447710146102b65780638da5cb5b146102e3578063937bbc4a1461033a578063dc7317c914610383578063f2fde38b14610429575b600080fd5b3480156100b557600080fd5b506100d46004803603810190808035906020019092919050505061046c565b604051808273ffffffffffffffffffffffffffffffffffffffff1673ffffffffffffffffffffffffffffffffffffffff16815260200191505060405180910390f35b34801561012257600080fd5b506101b360048036038101908080359060200190929190803573ffffffffffffffffffffffffffffffffffffffff169060200190929190803573ffffffffffffffffffffffffffffffffffffffff16906020019092919080356000191690602001909291908035906020019082018035906020019190919293919293908035151590602001909291905050506104ac565b005b3480156101c157600080fd5b506101e0600480360381019080803590602001909291905050506106c8565b604051808215151515815260200191505060405180910390f35b34801561020657600080fd5b50610225600480360381019080803590602001909291905050506106f5565b604051808273ffffffffffffffffffffffffffffffffffffffff1673ffffffffffffffffffffffffffffffffffffffff16815260200191505060405180910390f35b34801561027357600080fd5b5061029260048036038101908080359060200190929190505050610735565b604051808260018111156102a257fe5b60ff16815260200191505060405180910390f35b3480156102c257600080fd5b506102e160048036038101908080359060200190929190505050610762565b005b3480156102ef57600080fd5b506102f86107f7565b604051808273ffffffffffffffffffffffffffffffffffffffff1673ffffffffffffffffffffffffffffffffffffffff16815260200191505060405180910390f35b34801561034657600080fd5b506103656004803603810190808035906020019092919050505061081c565b60405180826000191660001916815260200191505060405180910390f35b34801561038f57600080fd5b506103ae6004803603810190808035906020019092919050505061083c565b6040518080602001828103825283818151815260200191508051906020019080838360005b838110156103ee5780820151818401526020810190506103d3565b50505050905090810190601f16801561041b5780820380516001836020036101000a031916815260200191505b509250505060405180910390f35b34801561043557600080fd5b5061046a600480360381019080803573ffffffffffffffffffffffffffffffffffffffff1690602001909291905050506108f4565b005b60006001600083815260200190815260200160002060010160009054906101000a900473ffffffffffffffffffffffffffffffffffffffff169050919050565b6000809054906101000a900473ffffffffffffffffffffffffffffffffffffffff1673ffffffffffffffffffffffffffffffffffffffff163373ffffffffffffffffffffffffffffffffffffffff1614151561050757600080fd5b60c0604051908101604052808773ffffffffffffffffffffffffffffffffffffffff1681526020018673ffffffffffffffffffffffffffffffffffffffff168152602001856000191681526020016000600181111561056257fe5b815260200184848080601f01602080910402602001604051908101604052809392919081815260200183838082843782019150505050505081526020018215158152506001600089815260200190815260200160002060008201518160000160006101000a81548173ffffffffffffffffffffffffffffffffffffffff021916908373ffffffffffffffffffffffffffffffffffffffff16021790555060208201518160010160006101000a81548173ffffffffffffffffffffffffffffffffffffffff021916908373ffffffffffffffffffffffffffffffffffffffff1602179055506040820151816002019060001916905560608201518160030160006101000a81548160ff0219169083600181111561067a57fe5b0217905550608082015181600401908051906020019061069b929190610a49565b5060a08201518160050160006101000a81548160ff02191690831515021790555090505050505050505050565b60006001600083815260200190815260200160002060050160009054906101000a900460ff169050919050565b60006001600083815260200190815260200160002060000160009054906101000a900473ffffffffffffffffffffffffffffffffffffffff169050919050565b60006001600083815260200190815260200160002060030160009054906101000a900460ff169050919050565b6000809054906101000a900473ffffffffffffffffffffffffffffffffffffffff1673ffffffffffffffffffffffffffffffffffffffff163373ffffffffffffffffffffffffffffffffffffffff161415156107bd57600080fd5b600180600083815260200190815260200160002060030160006101000a81548160ff021916908360018111156107ef57fe5b021790555050565b6000809054906101000a900473ffffffffffffffffffffffffffffffffffffffff1681565b600060016000838152602001908152602001600020600201549050919050565b6060600160008381526020019081526020016000206004018054600181600116156101000203166002900480601f0160208091040260200160405190810160405280929190818152602001828054600181600116156101000203166002900480156108e85780601f106108bd576101008083540402835291602001916108e8565b820191906000526020600020905b8154815290600101906020018083116108cb57829003601f168201915b50505050509050919050565b6000809054906101000a900473ffffffffffffffffffffffffffffffffffffffff1673ffffffffffffffffffffffffffffffffffffffff163373ffffffffffffffffffffffffffffffffffffffff1614151561094f57600080fd5b600073ffffffffffffffffffffffffffffffffffffffff168173ffffffffffffffffffffffffffffffffffffffff161415151561098b57600080fd5b8073ffffffffffffffffffffffffffffffffffffffff166000809054906101000a900473ffffffffffffffffffffffffffffffffffffffff1673ffffffffffffffffffffffffffffffffffffffff167f8be0079c531659141344cd1fd0a4f28419497f9722a3daafe3b4186f6b6457e060405160405180910390a3806000806101000a81548173ffffffffffffffffffffffffffffffffffffffff021916908373ffffffffffffffffffffffffffffffffffffffff16021790555050565b828054600181600116156101000203166002900490600052602060002090601f016020900481019282601f10610a8a57805160ff1916838001178555610ab8565b82800160010185558215610ab8579182015b82811115610ab7578251825591602001919060010190610a9c565b5b509050610ac59190610ac9565b5090565b610aeb91905b80821115610ae7576000816000905550600101610acf565b5090565b905600a165627a7a72305820d7fc388b48fb0b01b5024a081f6609fb6d2ff70adbf1c2d2afddd379e1c712ea0029",
  "source": "pragma solidity ^0.4.24;\n\nimport \"../../lib/ownership/Ownable.sol\";\n\ncontract DispatchStorage is Ownable {\n    \n    enum Status { Pending, Fulfilled }\n\n    //query data structure\n    struct Query {\n        address provider;       // data provider's address\n        address subscriber;     // requester's address\n        bytes32 endpoint;       // endpoint for response. (currently only 'smart_contract' endpoint supported)\n        Status status;          // status of the request\n        string userQuery;       // query string\n        bool onchainSubscriber; // is subscriber contract or offchain\n    }\n\n    //mapping of unique ids to query objects\n    mapping(uint256 => Query) private queries;\n\n    /**** Get Methods ****/\n\n    /// @dev get provider address of request\n    /// @param id request id\n    function getProvider(uint256 id) external view returns (address) {\n        return queries[id].provider;\n    }\n\n    /// @dev get subscriber address of request\n    /// @param id request id\n    function getSubscriber(uint256 id) external view returns (address) {\n        return queries[id].subscriber;\n    }\n\n    /// @dev get endpoint of request\n    /// @param id request id\n    function getEndpoint(uint256 id) external view returns (bytes32) {\n        return queries[id].endpoint;\n    }\n\n    /// @dev get status of request\n    /// @param id request id\n    function getStatus(uint256 id) external view returns (Status) {\n        return queries[id].status;\n    }\n\n    /// @dev get user specified query of request\n    /// @param id request id\n    function getUserQuery(uint256 id) external view returns (string) {\n        return queries[id].userQuery;\n    }\n\n    /// @dev is subscriber contract or offchain \n    /// @param id request id\n    function getSubscriberOnchain(uint256 id) external view returns (bool) {\n        return queries[id].onchainSubscriber;\n    }\n\n\n\t/**** Set Methods ****/\n    function createQuery(\n        uint256 id,\n        address provider,\n        address subscriber,\n        bytes32 endpoint,\n        string userQuery,\n        bool onchainSubscriber\n    ) \n        external\n        onlyOwner\n    {\n        queries[id] = Query(provider, subscriber, endpoint, Status.Pending, userQuery, onchainSubscriber);\n    }\n\n    function setFulfilled(uint256 id) external onlyOwner {\n        queries[id].status = Status.Fulfilled;\n    }\n}\n",
  "sourcePath": "/home/kim/ZAP/ZAPJS/node_modules/zap_contracts/contracts/platform/dispatch/DispatchStorage.sol",
  "compiler": {
    "name": "solc",
    "version": "0.4.24+commit.e67f0147.Emscripten.clang"
  },
  "schemaVersion": "2.0.1",
  "updatedAt": "2018-08-09T17:36:45.191Z"
}