{
  "contractName": "TestProvider",
  "abi": [
    {
      "constant": true,
      "inputs": [],
      "name": "spec2",
      "outputs": [
        {
          "name": "",
          "type": "bytes32"
        }
      ],
      "payable": false,
      "stateMutability": "view",
      "type": "function"
    },
    {
      "constant": true,
      "inputs": [],
      "name": "spec1",
      "outputs": [
        {
          "name": "",
          "type": "bytes32"
        }
      ],
      "payable": false,
      "stateMutability": "view",
      "type": "function"
    },
    {
      "constant": true,
      "inputs": [],
      "name": "spec3",
      "outputs": [
        {
          "name": "",
          "type": "bytes32"
        }
      ],
      "payable": false,
      "stateMutability": "view",
      "type": "function"
    },
    {
      "constant": true,
      "inputs": [],
      "name": "spec4",
      "outputs": [
        {
          "name": "",
          "type": "bytes32"
        }
      ],
      "payable": false,
      "stateMutability": "view",
      "type": "function"
    },
    {
      "inputs": [
        {
          "name": "registryAddress",
          "type": "address"
        }
      ],
      "payable": false,
      "stateMutability": "nonpayable",
      "type": "constructor"
    },
    {
      "anonymous": false,
      "inputs": [
        {
          "indexed": false,
          "name": "query",
          "type": "string"
        },
        {
          "indexed": false,
          "name": "endpoint",
          "type": "bytes32"
        },
        {
          "indexed": false,
          "name": "params",
          "type": "bytes32[]"
        }
      ],
      "name": "RecievedQuery",
      "type": "event"
    },
    {
      "anonymous": false,
      "inputs": [
        {
          "indexed": false,
          "name": "res",
          "type": "uint256"
        },
        {
          "indexed": false,
          "name": "b",
          "type": "bytes32"
        },
        {
          "indexed": false,
          "name": "s",
          "type": "string"
        }
      ],
      "name": "TEST",
      "type": "event"
    },
    {
      "constant": false,
      "inputs": [
        {
          "name": "id",
          "type": "uint256"
        },
        {
          "name": "userQuery",
          "type": "string"
        },
        {
          "name": "endpoint",
          "type": "bytes32"
        },
        {
          "name": "endpointParams",
          "type": "bytes32[]"
        },
        {
          "name": "onchainSubscriber",
          "type": "bool"
        }
      ],
      "name": "receive",
      "outputs": [],
      "payable": false,
      "stateMutability": "nonpayable",
      "type": "function"
    }
  ],
  "bytecode": "0x60806040527f48656c6c6f3f00000000000000000000000000000000000000000000000000006000906000191690557f52657665727365000000000000000000000000000000000000000000000000006001906000191690557f41646400000000000000000000000000000000000000000000000000000000006002906000191690557f446f75626c650000000000000000000000000000000000000000000000000000600390600019169055606060405190810160405280600260ff168152602001600260ff168152602001600060ff168152506004906003620000e692919062000ac2565b506040805190810160405280600063ffffffff168152602001633b9aca0063ffffffff1681525060059060026200011f92919062000b19565b50602060405190810160405280600160ff1681525060069060016200014692919062000b73565b503480156200015457600080fd5b50604051602080620017b0833981018060405281019080805190602001909291905050506000606082600760006101000a81548173ffffffffffffffffffffffffffffffffffffffff021916908373ffffffffffffffffffffffffffffffffffffffff1602179055507f54657374436f6e7472616374000000000000000000000000000000000000000091506002604051908082528060200260200182016040528015620002115781602001602082028038833980820191505090505b5090507f70310000000000000000000000000000000000000000000000000000000000008160008151811015156200024557fe5b9060200190602002019060001916908160001916815250507f70320000000000000000000000000000000000000000000000000000000000008160018151811015156200028e57fe5b906020019060200201906000191690816000191681525050600760009054906101000a900473ffffffffffffffffffffffffffffffffffffffff1673ffffffffffffffffffffffffffffffffffffffff166304c6752561303984600054856040518563ffffffff167c0100000000000000000000000000000000000000000000000000000000028152600401808581526020018460001916600019168152602001836000191660001916815260200180602001828103825283818151815260200191508051906020019060200280838360005b838110156200037e57808201518184015260208101905062000361565b5050505090500195505050505050602060405180830381600087803b158015620003a757600080fd5b505af1158015620003bc573d6000803e3d6000fd5b505050506040513d6020811015620003d357600080fd5b810190808051906020019092919050505050600760009054906101000a900473ffffffffffffffffffffffffffffffffffffffff1673ffffffffffffffffffffffffffffffffffffffff1663b21d9e8f6000546004600560066040518563ffffffff167c01000000000000000000000000000000000000000000000000000000000281526004018085600019166000191681526020018060200180602001806020018481038452878181548152602001915080548015620004b457602002820191906000526020600020905b8154815260200190600101908083116200049f575b50508481038352868181548152602001915080548015620004f557602002820191906000526020600020905b815481526020019060010190808311620004e0575b505084810382528581815481526020019150805480156200053657602002820191906000526020600020905b81548152602001906001019080831162000521575b5050975050505050505050602060405180830381600087803b1580156200055c57600080fd5b505af115801562000571573d6000803e3d6000fd5b505050506040513d60208110156200058857600080fd5b810190808051906020019092919050505050600760009054906101000a900473ffffffffffffffffffffffffffffffffffffffff1673ffffffffffffffffffffffffffffffffffffffff1663b21d9e8f6001546004600560066040518563ffffffff167c010000000000000000000000000000000000000000000000000000000002815260040180856000191660001916815260200180602001806020018060200184810384528781815481526020019150805480156200066957602002820191906000526020600020905b81548152602001906001019080831162000654575b50508481038352868181548152602001915080548015620006aa57602002820191906000526020600020905b81548152602001906001019080831162000695575b50508481038252858181548152602001915080548015620006eb57602002820191906000526020600020905b815481526020019060010190808311620006d6575b5050975050505050505050602060405180830381600087803b1580156200071157600080fd5b505af115801562000726573d6000803e3d6000fd5b505050506040513d60208110156200073d57600080fd5b810190808051906020019092919050505050600760009054906101000a900473ffffffffffffffffffffffffffffffffffffffff1673ffffffffffffffffffffffffffffffffffffffff1663b21d9e8f6002546004600560066040518563ffffffff167c010000000000000000000000000000000000000000000000000000000002815260040180856000191660001916815260200180602001806020018060200184810384528781815481526020019150805480156200081e57602002820191906000526020600020905b81548152602001906001019080831162000809575b505084810383528681815481526020019150805480156200085f57602002820191906000526020600020905b8154815260200190600101908083116200084a575b50508481038252858181548152602001915080548015620008a057602002820191906000526020600020905b8154815260200190600101908083116200088b575b5050975050505050505050602060405180830381600087803b158015620008c657600080fd5b505af1158015620008db573d6000803e3d6000fd5b505050506040513d6020811015620008f257600080fd5b810190808051906020019092919050505050600760009054906101000a900473ffffffffffffffffffffffffffffffffffffffff1673ffffffffffffffffffffffffffffffffffffffff1663b21d9e8f6003546004600560066040518563ffffffff167c01000000000000000000000000000000000000000000000000000000000281526004018085600019166000191681526020018060200180602001806020018481038452878181548152602001915080548015620009d357602002820191906000526020600020905b815481526020019060010190808311620009be575b5050848103835286818154815260200191508054801562000a1457602002820191906000526020600020905b815481526020019060010190808311620009ff575b5050848103825285818154815260200191508054801562000a5557602002820191906000526020600020905b81548152602001906001019080831162000a40575b5050975050505050505050602060405180830381600087803b15801562000a7b57600080fd5b505af115801562000a90573d6000803e3d6000fd5b505050506040513d602081101562000aa757600080fd5b81019080805190602001909291905050505050505062000c1a565b82805482825590600052602060002090810192821562000b06579160200282015b8281111562000b05578251829060ff1690559160200191906001019062000ae3565b5b50905062000b15919062000bca565b5090565b82805482825590600052602060002090810192821562000b60579160200282015b8281111562000b5f578251829063ffffffff1690559160200191906001019062000b3a565b5b50905062000b6f919062000bf2565b5090565b82805482825590600052602060002090810192821562000bb7579160200282015b8281111562000bb6578251829060ff1690559160200191906001019062000b94565b5b50905062000bc6919062000bf2565b5090565b62000bef91905b8082111562000beb57600081600090555060010162000bd1565b5090565b90565b62000c1791905b8082111562000c1357600081600090555060010162000bf9565b5090565b90565b610b868062000c2a6000396000f30060806040526004361061006d576000357c0100000000000000000000000000000000000000000000000000000000900463ffffffff1680632ee2742e1461007257806348cf129a146100a55780637ff94b62146100d8578063c5d7a7251461010b578063de2615831461013e575b600080fd5b34801561007e57600080fd5b506100876101b5565b60405180826000191660001916815260200191505060405180910390f35b3480156100b157600080fd5b506100ba6101bb565b60405180826000191660001916815260200191505060405180910390f35b3480156100e457600080fd5b506100ed6101c1565b60405180826000191660001916815260200191505060405180910390f35b34801561011757600080fd5b506101206101c7565b60405180826000191660001916815260200191505060405180910390f35b34801561014a57600080fd5b506101b36004803603810190808035906020019092919080359060200190820180359060200191909192939192939080356000191690602001909291908035906020019082018035906020019190919293919293908035151590602001909291905050506101cd565b005b60015481565b60005481565b60025481565b60035481565b60007fb1d30540f0019c1e94a292da7a6f164844c5d2e3dee75e0b3a6a66e4e9a4e15387878787876040518080602001856000191660001916815260200180602001838103835288888281815260200192508082843782019150508381038252858582818152602001925060200280828437820191505097505050505050505060405180910390a1811561056d5784604051808260001916600019168152602001915050604051809103902090506000546040518082600019166000191681526020019150506040518091039020600019168160001916141561031b576103168888888080601f016020809104026020016040519081016040528093929190818152602001838380828437820191505050505050868680806020026020016040519081016040528093929190818152602001838360200280828437820191505050505050610577565b61056c565b600154604051808260001916600019168152602001915050604051809103902060001916816000191614156103bb576103b68888888080601f016020809104026020016040519081016040528093929190818152602001838380828437820191505050505050868680806020026020016040519081016040528093929190818152602001838360200280828437820191505050505050610660565b61056b565b6002546040518082600019166000191681526020019150506040518091039020600019168160001916141561045b576104568888888080601f01602080910402602001604051908101604052809392919081815260200183838082843782019150505050505086868080602002602001604051908101604052809392919081815260200183836020028082843782019150505050505061078b565b61056a565b600354604051808260001916600019168152602001915050604051809103902060001916816000191614156104fb576104f68888888080601f01602080910402602001604051908101604052809392919081815260200183838082843782019150505050505086868080602002602001604051908101604052809392919081815260200183836020028082843782019150505050505061092f565b610569565b6040517f08c379a00000000000000000000000000000000000000000000000000000000081526004018080602001828103825260108152602001807f496e76616c696420656e64706f696e740000000000000000000000000000000081525060200191505060405180910390fd5b5b5b5b5b5050505050505050565b3373ffffffffffffffffffffffffffffffffffffffff16636843581c846040518263ffffffff167c010000000000000000000000000000000000000000000000000000000002815260040180828152602001806020018281038252600b8152602001807f48656c6c6f20576f726c6400000000000000000000000000000000000000000081525060200192505050602060405180830381600087803b15801561061f57600080fd5b505af1158015610633573d6000803e3d6000fd5b505050506040513d602081101561064957600080fd5b810190808051906020019092919050505050505050565b606061066b83610a51565b90503373ffffffffffffffffffffffffffffffffffffffff16636843581c85836040518363ffffffff167c01000000000000000000000000000000000000000000000000000000000281526004018083815260200180602001828103825283818151815260200191508051906020019080838360005b838110156106fc5780820151818401526020810190506106e1565b50505050905090810190601f1680156107295780820380516001836020036101000a031916815260200191505b509350505050602060405180830381600087803b15801561074957600080fd5b505af115801561075d573d6000803e3d6000fd5b505050506040513d602081101561077357600080fd5b81019080805190602001909291905050505050505050565b6000806000606060009350600092505b84518310156107d45784838151811015156107b257fe5b906020019060200201516001900491508184019350828060010193505061079b565b60016040519080825280602002602001820160405280156108045781602001602082028038833980820191505090505b5090508360010281600081518110151561081a57fe5b9060200190602002019060001916908160001916815250503373ffffffffffffffffffffffffffffffffffffffff16630cbe69a188836040518363ffffffff167c01000000000000000000000000000000000000000000000000000000000281526004018083815260200180602001828103825283818151815260200191508051906020019060200280838360005b838110156108c45780820151818401526020810190506108a9565b505050509050019350505050602060405180830381600087803b1580156108ea57600080fd5b505af11580156108fe573d6000803e3d6000fd5b505050506040513d602081101561091457600080fd5b81019080805190602001909291905050505050505050505050565b3373ffffffffffffffffffffffffffffffffffffffff1663fedea288846040518263ffffffff167c0100000000000000000000000000000000000000000000000000000000028152600401808281526020018060200180602001838103835260058152602001807f48656c6c6f000000000000000000000000000000000000000000000000000000815250602001838103825260058152602001807f576f726c640000000000000000000000000000000000000000000000000000008152506020019350505050602060405180830381600087803b158015610a1057600080fd5b505af1158015610a24573d6000803e3d6000fd5b505050506040513d6020811015610a3a57600080fd5b810190808051906020019092919050505050505050565b606080606080600085935083516040519080825280601f01601f191660200182016040528015610a905781602001602082028038833980820191505090505b509250829150600090505b8351811015610b4e578381815181101515610ab257fe5b9060200101517f010000000000000000000000000000000000000000000000000000000000000090047f0100000000000000000000000000000000000000000000000000000000000000028260018387510303815181101515610b1157fe5b9060200101907effffffffffffffffffffffffffffffffffffffffffffffffffffffffffffff1916908160001a9053508080600101915050610a9b565b819450505050509190505600a165627a7a72305820aab9135b272398f26f16df71b0f2fd56a787bf9c16381b9e0c6bbe8148ebffee0029",
  "source": "pragma solidity ^0.4.24;\n\nimport \"./Client.sol\";\nimport \"../../platform/dispatch/DispatchInterface.sol\";\nimport \"../../platform/bondage/BondageInterface.sol\";\nimport \"../../platform/registry/RegistryInterface.sol\";\nimport \"./OnChainProvider.sol\";\nimport \"../ERC20.sol\";\n\ncontract TestProvider is OnChainProvider {\n\tevent RecievedQuery(string query, bytes32 endpoint, bytes32[] params);\n\n    event TEST(uint res, bytes32 b, string s);\n\n    bytes32 public spec1 = \"Hello?\";\n    bytes32 public spec2 = \"Reverse\";\n    bytes32 public spec3 = \"Add\";\n    bytes32 public spec4 = \"Double\";\n\n    /* Endpoints to Functions:\n    spec1: Hello? -> returns \"Hello World\"\n    spec2: Reverse -> returns the query string in reverse\n    spec3: Add -> Adds up the values in endpointParams \n    */\n\n    // curve 2x^2\n    int[] constants = [2, 2, 0];\n    uint[] parts = [0, 1000000000];\n    uint[] dividers = [1]; \n\n    RegistryInterface registry;\n\n    // middleware function for handling queries\n\tfunction receive(uint256 id, string userQuery, bytes32 endpoint, bytes32[] endpointParams, bool onchainSubscriber) external {\n        emit RecievedQuery(userQuery, endpoint, endpointParams);\n        if(onchainSubscriber) {\n            bytes32 hash = keccak256(endpoint);\n\n            if(hash == keccak256(spec1)){\n                endpoint1(id, userQuery, endpointParams);\n            } else if (hash == keccak256(spec2)){               \n                endpoint2(id, userQuery, endpointParams);\n            } else if (hash == keccak256(spec3)){\n                endpoint3(id, userQuery, endpointParams);\n            } else if (hash == keccak256(spec4)){\n                endpoint4(id, userQuery, endpointParams);\n            } else {\n                revert(\"Invalid endpoint\");\n            }\n        }\n\t}\n\n    constructor(address registryAddress) public{\n\n        registry = RegistryInterface(registryAddress);\n\n        // initialize in registry\n        bytes32 title = \"TestContract\";\n\n        bytes32[] memory params = new bytes32[](2);\n        params[0] = \"p1\";\n        params[1] = \"p2\";\n\n        registry.initiateProvider(12345, title, spec1, params);\n\n        registry.initiateProviderCurve(spec1, constants, parts, dividers);\n        registry.initiateProviderCurve(spec2, constants, parts, dividers);\n        registry.initiateProviderCurve(spec3, constants, parts, dividers);\n        registry.initiateProviderCurve(spec4, constants, parts, dividers);\n    }\n\n\n    // return Hello World to query-maker\n    function endpoint1(uint256 id, string userQuery, bytes32[] endpointParams) internal{\n        Dispatch(msg.sender).respond1(id, \"Hello World\");\n    }\n\n    // return the hash of the query\n    function endpoint2(uint256 id, string userQuery, bytes32[] endpointParams) internal{\n        // endpointParams\n        string memory reversed = reverseString(userQuery);\n        Dispatch(msg.sender).respond1(id, reversed);\n    }\n\n     // returns the sum of all values in endpointParams\n    function endpoint3(uint256 id, string userQuery, bytes32[] endpointParams) internal{\n        uint sum = 0;\n        for(uint i = 0; i<endpointParams.length; i++){\n            uint value = uint(endpointParams[i]);\n            sum += value;\n        }\n\n        bytes32[] memory res = new bytes32[](1);\n        res[0] = bytes32(sum);\n\n        Dispatch(msg.sender).respondBytes32Array(id, res);\n    }\n\n    // returns the sum of all values in endpointParams\n    function endpoint4(uint256 id, string userQuery, bytes32[] endpointParams) internal{\n        Dispatch(msg.sender).respond2(id, \"Hello\", \"World\");\n    }\n\n    // TODO: TEST OUT MORE RETURN VALUES (1,2,3 or 4)!\n\n\n\n    function reverseString(string _base) internal pure returns (string){\n        bytes memory _baseBytes = bytes(_base);\n        string memory _tempValue = new string(_baseBytes.length);\n        bytes memory _newValue = bytes(_tempValue);\n\n        for(uint i=0;i<_baseBytes.length;i++){\n            _newValue[ _baseBytes.length - i - 1] = _baseBytes[i];\n        }\n\n        return string(_newValue);\n    }\n\n\n    function bytes32ToString (bytes32 data) internal pure returns (string) {\n        bytes memory bytesString = new bytes(32);\n        for (uint j=0; j<32; j++) {\n            byte char = byte(bytes32(uint(data) * 2 ** (8 * j)));\n            if (char != 0) {\n                bytesString[j] = char;\n            }\n        }\n        return string(bytesString);\n    }\n\n}\n\n/* Test Subscriber Client */\ncontract TestClient is Client1, Client2{\n\n\tevent Result1(uint256 id, string response1);\n    event Result1(uint256 id, bytes32 response1);\n    event Result2(uint256 id, string response1, string response2);\n\n\tERC20 token;\n\tDispatchInterface dispatch;\n\tBondageInterface bondage;\n    RegistryInterface registry;\n\n\tconstructor(address tokenAddress, address dispatchAddress, address bondageAddress, address registryAddress) public {\n\t\ttoken = ERC20(tokenAddress);\n\t\tdispatch = DispatchInterface(dispatchAddress);\n\t\tbondage = BondageInterface(bondageAddress);\n        registry = RegistryInterface(registryAddress);\n\t}\n\n    /*\n    Implements overloaded callback functions for Client1\n    */\n    function callback(uint256 id, string response1) external {\n    \tstring memory _response1 = response1;\n    \temit Result1(id, _response1);\n        // do something with result\n    }\n\n    function callback(uint256 id, bytes32[] response) external {\n\n        emit Result1(id, response[0]);\n        // do something with result\n    }\n\n    // Client2 callback\n    function callback(uint256 id, string response1, string response2) external {\n        emit Result2(id, response1, response2);\n        // do something with result\n    }\n\n    function testQuery(address oracleAddr, string query, bytes32 specifier, bytes32[] params) external {\n    \tdispatch.query(oracleAddr, query, specifier, params, true, true);\n    }\n\n    function stringToBytes32(string memory source) internal pure returns (bytes32 result) {\n    \tbytes memory tempEmptyStringTest = bytes(source);\n\n    \tif (tempEmptyStringTest.length == 0) {\n    \t\treturn 0x0;\n    \t}\n    \tassembly {\n    \t\tresult := mload(add(source, 32))\n    \t}\n    }\n\n}\n",
  "sourcePath": "/Users/michaelzman/Documents/workspace/Zap-monorepo/packages/Utils/node_modules/zap_contracts/contracts/lib/platform/TestContracts.sol",
  "compiler": {
    "name": "solc",
    "version": "0.4.24+commit.e67f0147.Emscripten.clang"
  },
  "schemaVersion": "2.0.1",
  "updatedAt": "2018-07-20T20:00:18.255Z"
}