{
  "contractName": "CurrentCost",
  "abi": [
    {
      "constant": true,
      "inputs": [],
      "name": "owner",
      "outputs": [
        {
          "name": "",
          "type": "address"
        }
      ],
      "payable": false,
      "stateMutability": "view",
      "type": "function"
    },
    {
      "constant": false,
      "inputs": [],
      "name": "selfDestruct",
      "outputs": [],
      "payable": false,
      "stateMutability": "nonpayable",
      "type": "function"
    },
    {
      "constant": false,
      "inputs": [
        {
          "name": "newOwner",
          "type": "address"
        }
      ],
      "name": "transferOwnership",
      "outputs": [],
      "payable": false,
      "stateMutability": "nonpayable",
      "type": "function"
    },
    {
      "inputs": [
        {
          "name": "registryAddress",
          "type": "address"
        }
      ],
      "payable": false,
      "stateMutability": "nonpayable",
      "type": "constructor"
    },
    {
      "anonymous": false,
      "inputs": [
        {
          "indexed": true,
          "name": "previousOwner",
          "type": "address"
        },
        {
          "indexed": true,
          "name": "newOwner",
          "type": "address"
        }
      ],
      "name": "OwnershipTransferred",
      "type": "event"
    },
    {
      "constant": true,
      "inputs": [
        {
          "name": "oracleAddress",
          "type": "address"
        },
        {
          "name": "endpoint",
          "type": "bytes32"
        },
        {
          "name": "totalBound",
          "type": "uint256"
        }
      ],
      "name": "_currentCostOfDot",
      "outputs": [
        {
          "name": "cost",
          "type": "uint256"
        }
      ],
      "payable": false,
      "stateMutability": "view",
      "type": "function"
    },
    {
      "constant": true,
      "inputs": [
        {
          "name": "oracleAddress",
          "type": "address"
        },
        {
          "name": "endpoint",
          "type": "bytes32"
        }
      ],
      "name": "_dotLimit",
      "outputs": [
        {
          "name": "limit",
          "type": "uint256"
        }
      ],
      "payable": false,
      "stateMutability": "view",
      "type": "function"
    }
  ],
  "bytecode": "0x608060405234801561001057600080fd5b5060405160208061115c83398101806040528101908080519060200190929190505050336000806101000a81548173ffffffffffffffffffffffffffffffffffffffff021916908373ffffffffffffffffffffffffffffffffffffffff16021790555080600160006101000a81548173ffffffffffffffffffffffffffffffffffffffff021916908373ffffffffffffffffffffffffffffffffffffffff16021790555050611098806100c46000396000f30060806040526004361061006d576000357c0100000000000000000000000000000000000000000000000000000000900463ffffffff1680638da5cb5b146100725780639cb8a26a146100c9578063c1ca69c4146100e0578063ecca1fad14610145578063f2fde38b146101b4575b600080fd5b34801561007e57600080fd5b506100876101f7565b604051808273ffffffffffffffffffffffffffffffffffffffff1673ffffffffffffffffffffffffffffffffffffffff16815260200191505060405180910390f35b3480156100d557600080fd5b506100de61021c565b005b3480156100ec57600080fd5b5061012f600480360381019080803573ffffffffffffffffffffffffffffffffffffffff16906020019092919080356000191690602001909291905050506102b1565b6040518082815260200191505060405180910390f35b34801561015157600080fd5b5061019e600480360381019080803573ffffffffffffffffffffffffffffffffffffffff1690602001909291908035600019169060200190929190803590602001909291905050506103c3565b6040518082815260200191505060405180910390f35b3480156101c057600080fd5b506101f5600480360381019080803573ffffffffffffffffffffffffffffffffffffffff169060200190929190505050610870565b005b6000809054906101000a900473ffffffffffffffffffffffffffffffffffffffff1681565b6000809054906101000a900473ffffffffffffffffffffffffffffffffffffffff1673ffffffffffffffffffffffffffffffffffffffff163373ffffffffffffffffffffffffffffffffffffffff1614151561027757600080fd5b6000809054906101000a900473ffffffffffffffffffffffffffffffffffffffff1673ffffffffffffffffffffffffffffffffffffffff16ff5b6000600160009054906101000a900473ffffffffffffffffffffffffffffffffffffffff1673ffffffffffffffffffffffffffffffffffffffff1663e48875ae84846040518363ffffffff167c0100000000000000000000000000000000000000000000000000000000028152600401808373ffffffffffffffffffffffffffffffffffffffff1673ffffffffffffffffffffffffffffffffffffffff168152602001826000191660001916815260200192505050602060405180830381600087803b15801561038057600080fd5b505af1158015610394573d6000803e3d6000fd5b505050506040513d60208110156103aa57600080fd5b8101908080519060200190929190505050905092915050565b600060608060608060036040519080825280602002602001820160405280156103fb5781602001602082028038833980820191505090505b509350600160009054906101000a900473ffffffffffffffffffffffffffffffffffffffff1673ffffffffffffffffffffffffffffffffffffffff166353b0a30089896040518363ffffffff167c0100000000000000000000000000000000000000000000000000000000028152600401808373ffffffffffffffffffffffffffffffffffffffff1673ffffffffffffffffffffffffffffffffffffffff168152602001826000191660001916815260200192505050606060405180830381600087803b1580156104cb57600080fd5b505af11580156104df573d6000803e3d6000fd5b505050506040513d60608110156104f557600080fd5b8101908080519060200190929190805190602001909291908051906020019092919050505086600081518110151561052957fe5b90602001906020020187600181518110151561054157fe5b90602001906020020188600281518110151561055957fe5b90602001906020020183815250838152508381525050505083600081518110151561058057fe5b906020019060200201516040519080825280602002602001820160405280156105b85781602001602082028038833980820191505090505b5092508360018151811015156105ca57fe5b906020019060200201516040519080825280602002602001820160405280156106025781602001602082028038833980820191505090505b50915083600281518110151561061457fe5b9060200190602002015160405190808252806020026020018201604052801561064c5781602001602082028038833980820191505090505b509050600160009054906101000a900473ffffffffffffffffffffffffffffffffffffffff1673ffffffffffffffffffffffffffffffffffffffff16632316a9ff89896040518363ffffffff167c0100000000000000000000000000000000000000000000000000000000028152600401808373ffffffffffffffffffffffffffffffffffffffff1673ffffffffffffffffffffffffffffffffffffffff168152602001826000191660001916815260200192505050600060405180830381600087803b15801561071c57600080fd5b505af1158015610730573d6000803e3d6000fd5b505050506040513d6000823e3d601f19601f82011682018060405250606081101561075a57600080fd5b81019080805164010000000081111561077257600080fd5b8281019050602081018481111561078857600080fd5b81518560208202830111640100000000821117156107a557600080fd5b505092919060200180516401000000008111156107c157600080fd5b828101905060208101848111156107d757600080fd5b81518560208202830111640100000000821117156107f457600080fd5b5050929190602001805164010000000081111561081057600080fd5b8281019050602081018481111561082657600080fd5b815185602082028301116401000000008211171561084357600080fd5b5050929190505050809350819450829550505050610863838383896109c5565b9450505050509392505050565b6000809054906101000a900473ffffffffffffffffffffffffffffffffffffffff1673ffffffffffffffffffffffffffffffffffffffff163373ffffffffffffffffffffffffffffffffffffffff161415156108cb57600080fd5b600073ffffffffffffffffffffffffffffffffffffffff168173ffffffffffffffffffffffffffffffffffffffff161415151561090757600080fd5b8073ffffffffffffffffffffffffffffffffffffffff166000809054906101000a900473ffffffffffffffffffffffffffffffffffffffff1673ffffffffffffffffffffffffffffffffffffffff167f8be0079c531659141344cd1fd0a4f28419497f9722a3daafe3b4186f6b6457e060405160405180910390a3806000806101000a81548173ffffffffffffffffffffffffffffffffffffffff021916908373ffffffffffffffffffffffffffffffffffffffff16021790555050565b60008060006060600060606000806000806109de611006565b6000808d12156109ed57600080fd5b8c9a50600099508d51604051908082528060200260200182016040528015610a2f57816020015b610a1c611028565b815260200190600190039081610a145790505b509850600097505b8d51881015610c1f578e88600202815181101515610a5157fe5b906020019060200201518989815181101515610a6957fe5b9060200190602002015160200181815250508e60018960020201815181101515610a8f57fe5b906020019060200201518989815181101515610aa757fe5b906020019060200201516040018181525050898e89815181101515610ac857fe5b9060200190602002015103604051908082528060200260200182016040528015610b0c57816020015b610af961104a565b815260200190600190039081610af15790505b5096508995505b8d88815181101515610b2157fe5b90602001906020020151861015610bd8578f86600302815181101515610b4357fe5b9060200190602002015194508f60018760030201815181101515610b6357fe5b9060200190602002015193508f60028760030201815181101515610b8357fe5b90602001906020020151925060606040519081016040528086815260200185815260200184815250915081878b8803815181101515610bbe57fe5b906020019060200201819052508580600101965050610b13565b868989815181101515610be757fe5b90602001906020020151600001819052508d88815181101515610c0657fe5b9060200190602002015199508780600101985050610a37565b600090505b8851811015610cb1578a8982815181101515610c3c57fe5b906020019060200201516020015111158015610c7357508881815181101515610c6157fe5b90602001906020020151604001518b11155b15610ca457610c9d8982815181101515610c8957fe5b90602001906020020151600001518e610cc9565b9b50610cb6565b8080600101915050610c24565b60009b505b5050505050505050505050949350505050565b6000806000806000809350600092505b8651831015610dcd576001915060008784815181101515610cf657fe5b90602001906020020151604001511415610d1f576000861215610d1a578560000395505b610d63565b60018784815181101515610d2f57fe5b90602001906020020151604001511415610d62576000861215610d555760009550610d61565b610d5e86610dda565b95505b5b5b8683815181101515610d7157fe5b906020019060200201516020015190505b6000811315610d9e578582029150808060019003915050610d82565b8683815181101515610dac57fe5b90602001906020020151600001518202840193508280600101935050610cd9565b8394505050505092915050565b60008160018303925060028304831792506004830483179250601083048317925061010083048317925062010000830483179250640100000000830483179250680100000000000000008304831792507001000000000000000000000000000000008304831792506001830192506040517ff8f9cbfae6cc78fbefe7cdc3a1793dfcf4f0e8bbd8cec470b6a28a7a5a3e1efd81527ff5ecf1b3e9debc68e1d9cfabc5997135bfb7a7a3938b7b606b5b4b3f2f1f0ffe60208201527ff6e4ed9ff2d6b458eadcdf97bd91692de2d4da8fd2d0ac50c6ae9a827252361660408201527fc8c0b887b0a8a4489c948c7f847c6125746c645c544c444038302820181008ff60608201527ff7cae577eec2a03cf3bad76fb589591debb2dd67e0aa9834bea6925f6a4a2e0e60808201527fe39ed557db96902cd38ed14fad815115c786af479b7e8324736353433727170760a08201527fc976c13bb96e881cb166a933a55e490d9d56952b8d4e801485467d236242260660c08201527f753a6d1b65325d0c552a4d1345224105391a310b29122104190a11030902010060e082015261010081016040527e818283848586878898a8b8c8d8e8f929395969799a9b9d9e9faaeb6bedeeff7f01000000000000000000000000000000000000000000000000000000000000008082870204818160ff038501510495507f8000000000000000000000000000000000000000000000000000000000000000851161010002860195505050505050919050565b6060604051908101604052806000815260200160008152602001600081525090565b6060604051908101604052806060815260200160008152602001600081525090565b60606040519081016040528060008152602001600081526020016000815250905600a165627a7a72305820137c65f0817c10ec39634601e062cce5ca21e3fd0a47b4c097dc43306a4eeb3f0029",
  "source": "pragma solidity ^0.4.24;\r\n\r\nimport \"../../../lib/lifecycle/Destructible.sol\";\r\nimport \"../../../lib/platform/PiecewiseLogic.sol\";\r\nimport \"../../registry/RegistryInterface.sol\";\r\nimport \"./CurrentCostInterface.sol\";\r\n\r\ncontract CurrentCost is Destructible, CurrentCostInterface {\r\n\r\n    RegistryInterface registry;\r\n\r\n    constructor(address registryAddress) public {\r\n       registry = RegistryInterface(registryAddress);\r\n    }\r\n\r\n    /// @dev calculates current cost of dot\r\n    /// @param oracleAddress oracle address\r\n    /// @param endpoint oracle endpoint\r\n    /// @param totalBound of already bounded dots\r\n    /// @return cost of next dot\r\n    function _currentCostOfDot(\r\n        address oracleAddress,\r\n        bytes32 endpoint,\r\n        uint256 totalBound\r\n    )\r\n        public\r\n        view\r\n        returns (uint256 cost)\r\n    {\r\n\r\n        uint[] memory lens = new uint[](3);\r\n        (lens[0],lens[1],lens[2]) = registry.getProviderArgsLength(oracleAddress,endpoint);\r\n        int[] memory constants = new int[](lens[0]);\r\n        uint[] memory  parts = new uint[](lens[1]);\r\n        uint[] memory dividers = new uint[](lens[2]);\r\n\r\n        (constants,parts,dividers) = registry.getProviderCurve(oracleAddress, endpoint);\r\n\r\n        return uint256(PiecewiseLogic.evalutePiecewiseFunction(constants,parts,dividers,\r\n            int(totalBound)\r\n        ));\r\n    }\r\n\r\n   function _dotLimit( \r\n        address oracleAddress,\r\n        bytes32 endpoint\r\n    )\r\n        public\r\n        view\r\n        returns (uint256 limit)\r\n    {\r\n        return registry.getDotLimit(oracleAddress, endpoint);\r\n    }\r\n}\r\n",
  "sourcePath": "C:\\Assets\\Zap-monorepo\\packages\\Utils\\node_modules\\zap_contracts\\contracts\\platform\\bondage\\currentCost\\CurrentCost.sol",
  "compiler": {
    "name": "solc",
    "version": "0.4.24+commit.e67f0147.Emscripten.clang"
  },
  "schemaVersion": "2.0.1",
  "updatedAt": "2018-07-13T11:24:33.863Z"
}