{
  "contractName": "ArbiterStorage",
  "abi": [
    {
      "constant": true,
      "inputs": [],
      "name": "owner",
      "outputs": [
        {
          "name": "",
          "type": "address"
        }
      ],
      "payable": false,
      "stateMutability": "view",
      "type": "function"
    },
    {
      "constant": false,
      "inputs": [
        {
          "name": "newOwner",
          "type": "address"
        }
      ],
      "name": "transferOwnership",
      "outputs": [],
      "payable": false,
      "stateMutability": "nonpayable",
      "type": "function"
    },
    {
      "anonymous": false,
      "inputs": [
        {
          "indexed": true,
          "name": "previousOwner",
          "type": "address"
        },
        {
          "indexed": true,
          "name": "newOwner",
          "type": "address"
        }
      ],
      "name": "OwnershipTransferred",
      "type": "event"
    },
    {
      "constant": true,
      "inputs": [
        {
          "name": "providerAddress",
          "type": "address"
        },
        {
          "name": "subscriberAddress",
          "type": "address"
        },
        {
          "name": "endpoint",
          "type": "bytes32"
        }
      ],
      "name": "getDots",
      "outputs": [
        {
          "name": "",
          "type": "uint64"
        }
      ],
      "payable": false,
      "stateMutability": "view",
      "type": "function"
    },
    {
      "constant": true,
      "inputs": [
        {
          "name": "providerAddress",
          "type": "address"
        },
        {
          "name": "subscriberAddress",
          "type": "address"
        },
        {
          "name": "endpoint",
          "type": "bytes32"
        }
      ],
      "name": "getBlockStart",
      "outputs": [
        {
          "name": "",
          "type": "uint96"
        }
      ],
      "payable": false,
      "stateMutability": "view",
      "type": "function"
    },
    {
      "constant": true,
      "inputs": [
        {
          "name": "providerAddress",
          "type": "address"
        },
        {
          "name": "subscriberAddress",
          "type": "address"
        },
        {
          "name": "endpoint",
          "type": "bytes32"
        }
      ],
      "name": "getPreBlockEnd",
      "outputs": [
        {
          "name": "",
          "type": "uint96"
        }
      ],
      "payable": false,
      "stateMutability": "view",
      "type": "function"
    },
    {
      "constant": false,
      "inputs": [
        {
          "name": "providerAddress",
          "type": "address"
        },
        {
          "name": "subscriberAddress",
          "type": "address"
        },
        {
          "name": "endpoint",
          "type": "bytes32"
        },
        {
          "name": "dots",
          "type": "uint64"
        },
        {
          "name": "blockStart",
          "type": "uint96"
        },
        {
          "name": "preBlockEnd",
          "type": "uint96"
        }
      ],
      "name": "setSubscription",
      "outputs": [],
      "payable": false,
      "stateMutability": "nonpayable",
      "type": "function"
    },
    {
      "constant": false,
      "inputs": [
        {
          "name": "providerAddress",
          "type": "address"
        },
        {
          "name": "subscriberAddress",
          "type": "address"
        },
        {
          "name": "endpoint",
          "type": "bytes32"
        }
      ],
      "name": "deleteSubscription",
      "outputs": [],
      "payable": false,
      "stateMutability": "nonpayable",
      "type": "function"
    }
  ],
  "bytecode": "0x6080604052336000806101000a81548173ffffffffffffffffffffffffffffffffffffffff021916908373ffffffffffffffffffffffffffffffffffffffff160217905550610a6e806100536000396000f300608060405260043610610083576000357c0100000000000000000000000000000000000000000000000000000000900463ffffffff1680633e24a696146100885780638da5cb5b14610129578063dbe7436414610180578063e87e69fe14610219578063eb609e96146102ba578063f2fde38b1461032b578063fc633fd71461036e575b600080fd5b34801561009457600080fd5b506100f7600480360381019080803573ffffffffffffffffffffffffffffffffffffffff169060200190929190803573ffffffffffffffffffffffffffffffffffffffff1690602001909291908035600019169060200190929190505050610423565b60405180826bffffffffffffffffffffffff166bffffffffffffffffffffffff16815260200191505060405180910390f35b34801561013557600080fd5b5061013e6104df565b604051808273ffffffffffffffffffffffffffffffffffffffff1673ffffffffffffffffffffffffffffffffffffffff16815260200191505060405180910390f35b34801561018c57600080fd5b506101ef600480360381019080803573ffffffffffffffffffffffffffffffffffffffff169060200190929190803573ffffffffffffffffffffffffffffffffffffffff1690602001909291908035600019169060200190929190505050610504565b604051808267ffffffffffffffff1667ffffffffffffffff16815260200191505060405180910390f35b34801561022557600080fd5b50610288600480360381019080803573ffffffffffffffffffffffffffffffffffffffff169060200190929190803573ffffffffffffffffffffffffffffffffffffffff16906020019092919080356000191690602001909291905050506105bc565b60405180826bffffffffffffffffffffffff166bffffffffffffffffffffffff16815260200191505060405180910390f35b3480156102c657600080fd5b50610329600480360381019080803573ffffffffffffffffffffffffffffffffffffffff169060200190929190803573ffffffffffffffffffffffffffffffffffffffff1690602001909291908035600019169060200190929190505050610678565b005b34801561033757600080fd5b5061036c600480360381019080803573ffffffffffffffffffffffffffffffffffffffff16906020019092919050505061076e565b005b34801561037a57600080fd5b50610421600480360381019080803573ffffffffffffffffffffffffffffffffffffffff169060200190929190803573ffffffffffffffffffffffffffffffffffffffff1690602001909291908035600019169060200190929190803567ffffffffffffffff16906020019092919080356bffffffffffffffffffffffff16906020019092919080356bffffffffffffffffffffffff1690602001909291905050506108c3565b005b6000600160008573ffffffffffffffffffffffffffffffffffffffff1673ffffffffffffffffffffffffffffffffffffffff16815260200190815260200160002060008473ffffffffffffffffffffffffffffffffffffffff1673ffffffffffffffffffffffffffffffffffffffff1681526020019081526020016000206000836000191660001916815260200190815260200160002060000160089054906101000a90046bffffffffffffffffffffffff1690509392505050565b6000809054906101000a900473ffffffffffffffffffffffffffffffffffffffff1681565b6000600160008573ffffffffffffffffffffffffffffffffffffffff1673ffffffffffffffffffffffffffffffffffffffff16815260200190815260200160002060008473ffffffffffffffffffffffffffffffffffffffff1673ffffffffffffffffffffffffffffffffffffffff1681526020019081526020016000206000836000191660001916815260200190815260200160002060000160009054906101000a900467ffffffffffffffff1690509392505050565b6000600160008573ffffffffffffffffffffffffffffffffffffffff1673ffffffffffffffffffffffffffffffffffffffff16815260200190815260200160002060008473ffffffffffffffffffffffffffffffffffffffff1673ffffffffffffffffffffffffffffffffffffffff1681526020019081526020016000206000836000191660001916815260200190815260200160002060000160149054906101000a90046bffffffffffffffffffffffff1690509392505050565b600160008473ffffffffffffffffffffffffffffffffffffffff1673ffffffffffffffffffffffffffffffffffffffff16815260200190815260200160002060008373ffffffffffffffffffffffffffffffffffffffff1673ffffffffffffffffffffffffffffffffffffffff16815260200190815260200160002060008260001916600019168152602001908152602001600020600080820160006101000a81549067ffffffffffffffff02191690556000820160086101000a8154906bffffffffffffffffffffffff02191690556000820160146101000a8154906bffffffffffffffffffffffff02191690555050505050565b6000809054906101000a900473ffffffffffffffffffffffffffffffffffffffff1673ffffffffffffffffffffffffffffffffffffffff163373ffffffffffffffffffffffffffffffffffffffff161415156107c957600080fd5b600073ffffffffffffffffffffffffffffffffffffffff168173ffffffffffffffffffffffffffffffffffffffff161415151561080557600080fd5b8073ffffffffffffffffffffffffffffffffffffffff166000809054906101000a900473ffffffffffffffffffffffffffffffffffffffff1673ffffffffffffffffffffffffffffffffffffffff167f8be0079c531659141344cd1fd0a4f28419497f9722a3daafe3b4186f6b6457e060405160405180910390a3806000806101000a81548173ffffffffffffffffffffffffffffffffffffffff021916908373ffffffffffffffffffffffffffffffffffffffff16021790555050565b6060604051908101604052808467ffffffffffffffff168152602001836bffffffffffffffffffffffff168152602001826bffffffffffffffffffffffff16815250600160008873ffffffffffffffffffffffffffffffffffffffff1673ffffffffffffffffffffffffffffffffffffffff16815260200190815260200160002060008773ffffffffffffffffffffffffffffffffffffffff1673ffffffffffffffffffffffffffffffffffffffff1681526020019081526020016000206000866000191660001916815260200190815260200160002060008201518160000160006101000a81548167ffffffffffffffff021916908367ffffffffffffffff16021790555060208201518160000160086101000a8154816bffffffffffffffffffffffff02191690836bffffffffffffffffffffffff16021790555060408201518160000160146101000a8154816bffffffffffffffffffffffff02191690836bffffffffffffffffffffffff1602179055509050505050505050505600a165627a7a723058203994d149fdd930e4e5d09871230c4b88e58cb028d8227f710b577d5bc52ac2510029",
  "source": "pragma solidity ^0.4.24;\r\n\r\nimport \"../../lib/ownership/Ownable.sol\";\r\n\r\ncontract ArbiterStorage is Ownable {\r\n\r\n    // Each subscription is represented as the following\r\n    struct Subscription {\r\n        uint64 dots;          // Cost in dots\r\n        uint96 blockStart;    // Block number subscription was initiated\r\n        uint96 preBlockEnd;   // Precalculated block end\r\n    }\r\n    \r\n    // providerAddress => subscriberAddress => endpoint => Subscription\r\n    mapping(address => mapping(address => mapping(bytes32 => Subscription))) private subscriptions;\r\n\r\n    /**** Get Methods ****/\r\n\r\n    /// @dev get subscriber dots remaining for specified provider endpoint\r\n    function getDots(\r\n        address providerAddress,\r\n        address subscriberAddress,\r\n        bytes32 endpoint\r\n    )\r\n        external\r\n        view\r\n        returns (uint64)\r\n    {\r\n        return subscriptions[providerAddress][subscriberAddress][endpoint].dots;\r\n    }\r\n\r\n    /// @dev get first subscription block number\r\n    function getBlockStart(\r\n        address providerAddress,\r\n        address subscriberAddress,\r\n        bytes32 endpoint\r\n    )\r\n        external\r\n        view\r\n        returns (uint96)\r\n    {\r\n        return subscriptions[providerAddress][subscriberAddress][endpoint].blockStart;\r\n    }\r\n\r\n    /// @dev get last subscription block number\r\n    function getPreBlockEnd(\r\n        address providerAddress,\r\n        address subscriberAddress,\r\n        bytes32 endpoint\r\n    )\r\n        external\r\n        view\r\n        returns (uint96)\r\n    {\r\n        return subscriptions[providerAddress][subscriberAddress][endpoint].preBlockEnd;\r\n    }\r\n\r\n\t/**** Set Methods ****/\r\n\r\n    /// @dev store new subscription\r\n    function setSubscription(\r\n        address providerAddress,\r\n        address subscriberAddress,\r\n        bytes32 endpoint,\r\n        uint64 dots,\r\n        uint96 blockStart,\r\n        uint96 preBlockEnd\r\n    )\r\n        external\r\n    {\r\n        subscriptions[providerAddress][subscriberAddress][endpoint] = Subscription(\r\n            dots,\r\n            blockStart,\r\n            preBlockEnd\r\n        );\r\n    }\r\n\r\n    /**** Delete Methods ****/\r\n\r\n    /// @dev remove subscription\r\n    function deleteSubscription(\r\n        address providerAddress,\r\n        address subscriberAddress,\r\n        bytes32 endpoint\r\n    )\r\n        external\r\n    {\r\n        delete subscriptions[providerAddress][subscriberAddress][endpoint];\r\n    }\r\n}\r\n",
  "sourcePath": "C:\\Assets\\Zap-monorepo\\packages\\Utils\\node_modules\\zap_contracts\\contracts\\platform\\arbiter\\ArbiterStorage.sol",
  "compiler": {
    "name": "solc",
    "version": "0.4.24+commit.e67f0147.Emscripten.clang"
  },
  "schemaVersion": "2.0.1",
  "updatedAt": "2018-07-16T12:12:49.164Z"
}