{
  "contractName": "Arbiter",
  "abi": [
    {
      "constant": true,
      "inputs": [],
      "name": "storageAddress",
      "outputs": [
        {
          "name": "",
          "type": "address"
        }
      ],
      "payable": false,
      "stateMutability": "view",
      "type": "function"
    },
    {
      "constant": true,
      "inputs": [],
      "name": "owner",
      "outputs": [
        {
          "name": "",
          "type": "address"
        }
      ],
      "payable": false,
      "stateMutability": "view",
      "type": "function"
    },
    {
      "constant": false,
      "inputs": [],
      "name": "selfDestruct",
      "outputs": [],
      "payable": false,
      "stateMutability": "nonpayable",
      "type": "function"
    },
    {
      "constant": true,
      "inputs": [],
      "name": "bondageAddress",
      "outputs": [
        {
          "name": "",
          "type": "address"
        }
      ],
      "payable": false,
      "stateMutability": "view",
      "type": "function"
    },
    {
      "constant": false,
      "inputs": [
        {
          "name": "newOwner",
          "type": "address"
        }
      ],
      "name": "transferOwnership",
      "outputs": [],
      "payable": false,
      "stateMutability": "nonpayable",
      "type": "function"
    },
    {
      "inputs": [
        {
          "name": "_storageAddress",
          "type": "address"
        },
        {
          "name": "_bondageAddress",
          "type": "address"
        }
      ],
      "payable": false,
      "stateMutability": "nonpayable",
      "type": "constructor"
    },
    {
      "anonymous": false,
      "inputs": [
        {
          "indexed": true,
          "name": "provider",
          "type": "address"
        },
        {
          "indexed": true,
          "name": "subscriber",
          "type": "address"
        },
        {
          "indexed": false,
          "name": "publicKey",
          "type": "uint256"
        },
        {
          "indexed": true,
          "name": "amount",
          "type": "uint256"
        },
        {
          "indexed": false,
          "name": "endpointParams",
          "type": "bytes32[]"
        },
        {
          "indexed": false,
          "name": "endpoint",
          "type": "bytes32"
        }
      ],
      "name": "DataPurchase",
      "type": "event"
    },
    {
      "anonymous": false,
      "inputs": [
        {
          "indexed": true,
          "name": "provider",
          "type": "address"
        },
        {
          "indexed": true,
          "name": "subscriber",
          "type": "address"
        },
        {
          "indexed": true,
          "name": "terminator",
          "type": "uint8"
        }
      ],
      "name": "DataSubscriptionEnd",
      "type": "event"
    },
    {
      "anonymous": false,
      "inputs": [
        {
          "indexed": true,
          "name": "previousOwner",
          "type": "address"
        },
        {
          "indexed": true,
          "name": "newOwner",
          "type": "address"
        }
      ],
      "name": "OwnershipTransferred",
      "type": "event"
    },
    {
      "constant": false,
      "inputs": [
        {
          "name": "newBondageAddress",
          "type": "address"
        }
      ],
      "name": "setBondage",
      "outputs": [],
      "payable": false,
      "stateMutability": "nonpayable",
      "type": "function"
    },
    {
      "constant": false,
      "inputs": [
        {
          "name": "providerAddress",
          "type": "address"
        },
        {
          "name": "endpoint",
          "type": "bytes32"
        },
        {
          "name": "endpointParams",
          "type": "bytes32[]"
        },
        {
          "name": "publicKey",
          "type": "uint256"
        },
        {
          "name": "blocks",
          "type": "uint64"
        }
      ],
      "name": "initiateSubscription",
      "outputs": [],
      "payable": false,
      "stateMutability": "nonpayable",
      "type": "function"
    },
    {
      "constant": true,
      "inputs": [
        {
          "name": "providerAddress",
          "type": "address"
        },
        {
          "name": "subscriberAddress",
          "type": "address"
        },
        {
          "name": "endpoint",
          "type": "bytes32"
        }
      ],
      "name": "getSubscription",
      "outputs": [
        {
          "name": "dots",
          "type": "uint64"
        },
        {
          "name": "blockStart",
          "type": "uint96"
        },
        {
          "name": "preBlockEnd",
          "type": "uint96"
        }
      ],
      "payable": false,
      "stateMutability": "view",
      "type": "function"
    },
    {
      "constant": false,
      "inputs": [
        {
          "name": "subscriberAddress",
          "type": "address"
        },
        {
          "name": "endpoint",
          "type": "bytes32"
        }
      ],
      "name": "endSubscriptionProvider",
      "outputs": [],
      "payable": false,
      "stateMutability": "nonpayable",
      "type": "function"
    },
    {
      "constant": false,
      "inputs": [
        {
          "name": "providerAddress",
          "type": "address"
        },
        {
          "name": "endpoint",
          "type": "bytes32"
        }
      ],
      "name": "endSubscriptionSubscriber",
      "outputs": [],
      "payable": false,
      "stateMutability": "nonpayable",
      "type": "function"
    }
  ],
  "bytecode": "0x608060405234801561001057600080fd5b50604051604080611acf8339810180604052810190808051906020019092919080519060200190929190505050336000806101000a81548173ffffffffffffffffffffffffffffffffffffffff021916908373ffffffffffffffffffffffffffffffffffffffff16021790555081600360006101000a81548173ffffffffffffffffffffffffffffffffffffffff021916908373ffffffffffffffffffffffffffffffffffffffff16021790555080600460006101000a81548173ffffffffffffffffffffffffffffffffffffffff021916908373ffffffffffffffffffffffffffffffffffffffff16021790555081600160006101000a81548173ffffffffffffffffffffffffffffffffffffffff021916908373ffffffffffffffffffffffffffffffffffffffff16021790555080600260006101000a81548173ffffffffffffffffffffffffffffffffffffffff021916908373ffffffffffffffffffffffffffffffffffffffff160217905550505061193d806101926000396000f3006080604052600436106100a4576000357c0100000000000000000000000000000000000000000000000000000000900463ffffffff16806362800bd8146100a95780636c526d85146100fa57806385aa92a7146101d95780638da5cb5b146102305780639c87920a146102875780639cb8a26a14610339578063b50cffc314610350578063e00dbb4114610393578063f2fde38b146103ea578063fb8846301461042d575b600080fd5b3480156100b557600080fd5b506100f8600480360381019080803573ffffffffffffffffffffffffffffffffffffffff169060200190929190803560001916906020019092919050505061047e565b005b34801561010657600080fd5b50610169600480360381019080803573ffffffffffffffffffffffffffffffffffffffff169060200190929190803573ffffffffffffffffffffffffffffffffffffffff16906020019092919080356000191690602001909291905050506104f9565b604051808467ffffffffffffffff1667ffffffffffffffff168152602001836bffffffffffffffffffffffff166bffffffffffffffffffffffff168152602001826bffffffffffffffffffffffff166bffffffffffffffffffffffff168152602001935050505060405180910390f35b3480156101e557600080fd5b506101ee6108c1565b604051808273ffffffffffffffffffffffffffffffffffffffff1673ffffffffffffffffffffffffffffffffffffffff16815260200191505060405180910390f35b34801561023c57600080fd5b506102456108e7565b604051808273ffffffffffffffffffffffffffffffffffffffff1673ffffffffffffffffffffffffffffffffffffffff16815260200191505060405180910390f35b34801561029357600080fd5b50610337600480360381019080803573ffffffffffffffffffffffffffffffffffffffff16906020019092919080356000191690602001909291908035906020019082018035906020019080806020026020016040519081016040528093929190818152602001838360200280828437820191505050505050919291929080359060200190929190803567ffffffffffffffff16906020019092919050505061090c565b005b34801561034557600080fd5b5061034e610e21565b005b34801561035c57600080fd5b50610391600480360381019080803573ffffffffffffffffffffffffffffffffffffffff169060200190929190505050610eb6565b005b34801561039f57600080fd5b506103a8610f55565b604051808273ffffffffffffffffffffffffffffffffffffffff1673ffffffffffffffffffffffffffffffffffffffff16815260200191505060405180910390f35b3480156103f657600080fd5b5061042b600480360381019080803573ffffffffffffffffffffffffffffffffffffffff169060200190929190505050610f7b565b005b34801561043957600080fd5b5061047c600480360381019080803573ffffffffffffffffffffffffffffffffffffffff16906020019092919080356000191690602001909291905050506110d0565b005b61048982338361114c565b156104f55760018081111561049a57fe5b3373ffffffffffffffffffffffffffffffffffffffff168373ffffffffffffffffffffffffffffffffffffffff167fe27dcf9b3b50e7d3af96f88c64ebd7307cdef3359182881bfe7210b42433a44960405160405180910390a45b5050565b6000806000600160009054906101000a900473ffffffffffffffffffffffffffffffffffffffff1673ffffffffffffffffffffffffffffffffffffffff1663dbe743648787876040518463ffffffff167c0100000000000000000000000000000000000000000000000000000000028152600401808473ffffffffffffffffffffffffffffffffffffffff1673ffffffffffffffffffffffffffffffffffffffff1681526020018373ffffffffffffffffffffffffffffffffffffffff1673ffffffffffffffffffffffffffffffffffffffff16815260200182600019166000191681526020019350505050602060405180830381600087803b1580156105ff57600080fd5b505af1158015610613573d6000803e3d6000fd5b505050506040513d602081101561062957600080fd5b8101908080519060200190929190505050600160009054906101000a900473ffffffffffffffffffffffffffffffffffffffff1673ffffffffffffffffffffffffffffffffffffffff16633e24a6968888886040518463ffffffff167c0100000000000000000000000000000000000000000000000000000000028152600401808473ffffffffffffffffffffffffffffffffffffffff1673ffffffffffffffffffffffffffffffffffffffff1681526020018373ffffffffffffffffffffffffffffffffffffffff1673ffffffffffffffffffffffffffffffffffffffff16815260200182600019166000191681526020019350505050602060405180830381600087803b15801561073b57600080fd5b505af115801561074f573d6000803e3d6000fd5b505050506040513d602081101561076557600080fd5b8101908080519060200190929190505050600160009054906101000a900473ffffffffffffffffffffffffffffffffffffffff1673ffffffffffffffffffffffffffffffffffffffff1663e87e69fe8989896040518463ffffffff167c0100000000000000000000000000000000000000000000000000000000028152600401808473ffffffffffffffffffffffffffffffffffffffff1673ffffffffffffffffffffffffffffffffffffffff1681526020018373ffffffffffffffffffffffffffffffffffffffff1673ffffffffffffffffffffffffffffffffffffffff16815260200182600019166000191681526020019350505050602060405180830381600087803b15801561087757600080fd5b505af115801561088b573d6000803e3d6000fd5b505050506040513d60208110156108a157600080fd5b810190808051906020019092919050505092509250925093509350939050565b600360009054906101000a900473ffffffffffffffffffffffffffffffffffffffff1681565b6000809054906101000a900473ffffffffffffffffffffffffffffffffffffffff1681565b60008167ffffffffffffffff1611151561092557600080fd5b6000600160009054906101000a900473ffffffffffffffffffffffffffffffffffffffff1673ffffffffffffffffffffffffffffffffffffffff1663dbe743648733886040518463ffffffff167c0100000000000000000000000000000000000000000000000000000000028152600401808473ffffffffffffffffffffffffffffffffffffffff1673ffffffffffffffffffffffffffffffffffffffff1681526020018373ffffffffffffffffffffffffffffffffffffffff1673ffffffffffffffffffffffffffffffffffffffff16815260200182600019166000191681526020019350505050602060405180830381600087803b158015610a2857600080fd5b505af1158015610a3c573d6000803e3d6000fd5b505050506040513d6020811015610a5257600080fd5b810190808051906020019092919050505067ffffffffffffffff16141515610a7957600080fd5b600260009054906101000a900473ffffffffffffffffffffffffffffffffffffffff1673ffffffffffffffffffffffffffffffffffffffff166316614c98338787856040518563ffffffff167c0100000000000000000000000000000000000000000000000000000000028152600401808573ffffffffffffffffffffffffffffffffffffffff1673ffffffffffffffffffffffffffffffffffffffff1681526020018473ffffffffffffffffffffffffffffffffffffffff1673ffffffffffffffffffffffffffffffffffffffff16815260200183600019166000191681526020018267ffffffffffffffff168152602001945050505050602060405180830381600087803b158015610b8c57600080fd5b505af1158015610ba0573d6000803e3d6000fd5b505050506040513d6020811015610bb657600080fd5b810190808051906020019092919050505050600160009054906101000a900473ffffffffffffffffffffffffffffffffffffffff1673ffffffffffffffffffffffffffffffffffffffff1663fc633fd786338785438767ffffffffffffffff1643016040518763ffffffff167c0100000000000000000000000000000000000000000000000000000000028152600401808773ffffffffffffffffffffffffffffffffffffffff1673ffffffffffffffffffffffffffffffffffffffff1681526020018673ffffffffffffffffffffffffffffffffffffffff1673ffffffffffffffffffffffffffffffffffffffff16815260200185600019166000191681526020018467ffffffffffffffff1667ffffffffffffffff168152602001836bffffffffffffffffffffffff166bffffffffffffffffffffffff168152602001826bffffffffffffffffffffffff166bffffffffffffffffffffffff1681526020019650505050505050600060405180830381600087803b158015610d3957600080fd5b505af1158015610d4d573d6000803e3d6000fd5b505050508067ffffffffffffffff163373ffffffffffffffffffffffffffffffffffffffff168673ffffffffffffffffffffffffffffffffffffffff167f10cd0837c48b7daca59ad3bbdbdc193ea84eea36bfde21b4c4b0960ab41b9f2f85878960405180848152602001806020018360001916600019168152602001828103825284818151815260200191508051906020019060200280838360005b83811015610e05578082015181840152602081019050610dea565b5050505090500194505050505060405180910390a45050505050565b6000809054906101000a900473ffffffffffffffffffffffffffffffffffffffff1673ffffffffffffffffffffffffffffffffffffffff163373ffffffffffffffffffffffffffffffffffffffff16141515610e7c57600080fd5b6000809054906101000a900473ffffffffffffffffffffffffffffffffffffffff1673ffffffffffffffffffffffffffffffffffffffff16ff5b6000809054906101000a900473ffffffffffffffffffffffffffffffffffffffff1673ffffffffffffffffffffffffffffffffffffffff163373ffffffffffffffffffffffffffffffffffffffff16141515610f1157600080fd5b80600260006101000a81548173ffffffffffffffffffffffffffffffffffffffff021916908373ffffffffffffffffffffffffffffffffffffffff16021790555050565b600460009054906101000a900473ffffffffffffffffffffffffffffffffffffffff1681565b6000809054906101000a900473ffffffffffffffffffffffffffffffffffffffff1673ffffffffffffffffffffffffffffffffffffffff163373ffffffffffffffffffffffffffffffffffffffff16141515610fd657600080fd5b600073ffffffffffffffffffffffffffffffffffffffff168173ffffffffffffffffffffffffffffffffffffffff161415151561101257600080fd5b8073ffffffffffffffffffffffffffffffffffffffff166000809054906101000a900473ffffffffffffffffffffffffffffffffffffffff1673ffffffffffffffffffffffffffffffffffffffff167f8be0079c531659141344cd1fd0a4f28419497f9722a3daafe3b4186f6b6457e060405160405180910390a3806000806101000a81548173ffffffffffffffffffffffffffffffffffffffff021916908373ffffffffffffffffffffffffffffffffffffffff16021790555050565b6110db33838361114c565b1561114857600060018111156110ed57fe5b8273ffffffffffffffffffffffffffffffffffffffff163373ffffffffffffffffffffffffffffffffffffffff167fe27dcf9b3b50e7d3af96f88c64ebd7307cdef3359182881bfe7210b42433a44960405160405180910390a45b5050565b6000806000806000600160009054906101000a900473ffffffffffffffffffffffffffffffffffffffff1673ffffffffffffffffffffffffffffffffffffffff1663dbe743648989896040518463ffffffff167c0100000000000000000000000000000000000000000000000000000000028152600401808473ffffffffffffffffffffffffffffffffffffffff1673ffffffffffffffffffffffffffffffffffffffff1681526020018373ffffffffffffffffffffffffffffffffffffffff1673ffffffffffffffffffffffffffffffffffffffff16815260200182600019166000191681526020019350505050602060405180830381600087803b15801561125557600080fd5b505af1158015611269573d6000803e3d6000fd5b505050506040513d602081101561127f57600080fd5b810190808051906020019092919050505067ffffffffffffffff169350600160009054906101000a900473ffffffffffffffffffffffffffffffffffffffff1673ffffffffffffffffffffffffffffffffffffffff1663e87e69fe8989896040518463ffffffff167c0100000000000000000000000000000000000000000000000000000000028152600401808473ffffffffffffffffffffffffffffffffffffffff1673ffffffffffffffffffffffffffffffffffffffff1681526020018373ffffffffffffffffffffffffffffffffffffffff1673ffffffffffffffffffffffffffffffffffffffff16815260200182600019166000191681526020019350505050602060405180830381600087803b15801561139d57600080fd5b505af11580156113b1573d6000803e3d6000fd5b505050506040513d60208110156113c757600080fd5b81019080805190602001909291905050506bffffffffffffffffffffffff1692506000841115156113f757600080fd5b824310156116a3578284430281151561140c57fe5b0491508184039050600260009054906101000a900473ffffffffffffffffffffffffffffffffffffffff1673ffffffffffffffffffffffffffffffffffffffff16633b058aa7888a89866040518563ffffffff167c0100000000000000000000000000000000000000000000000000000000028152600401808573ffffffffffffffffffffffffffffffffffffffff1673ffffffffffffffffffffffffffffffffffffffff1681526020018473ffffffffffffffffffffffffffffffffffffffff1673ffffffffffffffffffffffffffffffffffffffff1681526020018360001916600019168152602001828152602001945050505050602060405180830381600087803b15801561151d57600080fd5b505af1158015611531573d6000803e3d6000fd5b505050506040513d602081101561154757600080fd5b810190808051906020019092919050505050600260009054906101000a900473ffffffffffffffffffffffffffffffffffffffff1673ffffffffffffffffffffffffffffffffffffffff16633b058aa7888989856040518563ffffffff167c0100000000000000000000000000000000000000000000000000000000028152600401808573ffffffffffffffffffffffffffffffffffffffff1673ffffffffffffffffffffffffffffffffffffffff1681526020018473ffffffffffffffffffffffffffffffffffffffff1673ffffffffffffffffffffffffffffffffffffffff1681526020018360001916600019168152602001828152602001945050505050602060405180830381600087803b15801561166257600080fd5b505af1158015611676573d6000803e3d6000fd5b505050506040513d602081101561168c57600080fd5b8101908080519060200190929190505050506117e9565b600260009054906101000a900473ffffffffffffffffffffffffffffffffffffffff1673ffffffffffffffffffffffffffffffffffffffff16633b058aa7888a89886040518563ffffffff167c0100000000000000000000000000000000000000000000000000000000028152600401808573ffffffffffffffffffffffffffffffffffffffff1673ffffffffffffffffffffffffffffffffffffffff1681526020018473ffffffffffffffffffffffffffffffffffffffff1673ffffffffffffffffffffffffffffffffffffffff1681526020018360001916600019168152602001828152602001945050505050602060405180830381600087803b1580156117ac57600080fd5b505af11580156117c0573d6000803e3d6000fd5b505050506040513d60208110156117d657600080fd5b8101908080519060200190929190505050505b600160009054906101000a900473ffffffffffffffffffffffffffffffffffffffff1673ffffffffffffffffffffffffffffffffffffffff1663eb609e968989896040518463ffffffff167c0100000000000000000000000000000000000000000000000000000000028152600401808473ffffffffffffffffffffffffffffffffffffffff1673ffffffffffffffffffffffffffffffffffffffff1681526020018373ffffffffffffffffffffffffffffffffffffffff1673ffffffffffffffffffffffffffffffffffffffff16815260200182600019166000191681526020019350505050600060405180830381600087803b1580156118ea57600080fd5b505af11580156118fe573d6000803e3d6000fd5b50505050600194505050505093925050505600a165627a7a723058207ef98ead664728476e105de654688deb8a627b92dcf6facd02b6b50708497b360029",
  "source": "pragma solidity ^0.4.24;\r\n// v1.0\r\n\r\nimport \"../../lib/lifecycle/Destructible.sol\";\r\nimport \"../bondage/BondageInterface.sol\";\r\nimport \"./ArbiterStorage.sol\";\r\nimport \"./ArbiterInterface.sol\";\r\n\r\ncontract Arbiter is Destructible, ArbiterInterface {\r\n    // Called when a data purchase is initiated\r\n    event DataPurchase(\r\n        address indexed provider,          // Etheruem address of the provider\r\n        address indexed subscriber,        // Ethereum address of the subscriber\r\n        uint256 publicKey,                 // Public key of the subscriber\r\n        uint256 indexed amount,            // Amount (in 1/100 ZAP) of ethereum sent\r\n        bytes32[] endpointParams,          // Endpoint specific(nonce,encrypted_uuid),\r\n        bytes32 endpoint                   // Endpoint specifier\r\n    );\r\n\r\n    // Called when a data subscription is ended by either provider or terminator\r\n    event DataSubscriptionEnd(\r\n        address indexed provider,                      // Provider from the subscription\r\n        address indexed subscriber,                    // Subscriber from the subscription\r\n        SubscriptionTerminator indexed terminator      // Which terminated the contract\r\n    ); \r\n\r\n    // Used to specify who is the terminator of a contract\r\n    enum SubscriptionTerminator { Provider, Subscriber }\r\n\r\n    ArbiterStorage stor;\r\n    BondageInterface bondage;\r\n\r\n    address public storageAddress;\r\n    address public bondageAddress;\r\n\r\n    constructor(address _storageAddress, address _bondageAddress) public {\r\n        storageAddress = _storageAddress;\r\n        bondageAddress = _bondageAddress;\r\n        stor = ArbiterStorage(_storageAddress);\r\n        bondage = BondageInterface(_bondageAddress);\r\n    }\r\n\r\n    /// @notice Upgdate bondage function (barring no interface change)\r\n    function setBondage(address newBondageAddress) public onlyOwner {\r\n        bondage = BondageInterface(newBondageAddress);\r\n    }    \r\n\r\n    /// @dev subscribe to specified number of blocks of provider\r\n    /// @param providerAddress Provider address\r\n    /// @param endpoint Endpoint specifier\r\n    /// @param endpointParams Endpoint specific params\r\n    /// @param publicKey Public key of the purchaser\r\n    /// @param blocks Number of blocks subscribed, 1block=1dot\r\n    function initiateSubscription(\r\n        address providerAddress,   //\r\n        bytes32 endpoint,          //\r\n        bytes32[] endpointParams,  //\r\n        uint256 publicKey,         // Public key of the purchaser\r\n        uint64 blocks              //\r\n    ) \r\n        public \r\n    {   \r\n        // Must be atleast one block\r\n        require(blocks > 0);\r\n\r\n        // Can't reinitiate a currently active contract\r\n        require(stor.getDots(providerAddress, msg.sender, endpoint) == 0);\r\n\r\n        // Escrow the necessary amount of dots\r\n        bondage.escrowDots(msg.sender, providerAddress, endpoint, blocks);\r\n        \r\n        // Initiate the subscription struct\r\n        stor.setSubscription(\r\n            providerAddress,\r\n            msg.sender,\r\n            endpoint,\r\n            blocks,\r\n            uint96(block.number),\r\n            uint96(block.number) + uint96(blocks)\r\n        );\r\n\r\n        emit DataPurchase(\r\n            providerAddress,\r\n            msg.sender,\r\n            publicKey,\r\n            blocks,\r\n            endpointParams,\r\n            endpoint\r\n        );\r\n    }\r\n\r\n    /// @dev get subscription info\r\n    function getSubscription(address providerAddress, address subscriberAddress, bytes32 endpoint)\r\n        public\r\n        view\r\n        returns (uint64 dots, uint96 blockStart, uint96 preBlockEnd)\r\n    {\r\n        return (\r\n            stor.getDots(providerAddress, subscriberAddress, endpoint),\r\n            stor.getBlockStart(providerAddress, subscriberAddress, endpoint),\r\n            stor.getPreBlockEnd(providerAddress, subscriberAddress, endpoint)\r\n        );\r\n    }\r\n\r\n    /// @dev Finish the data feed from the provider\r\n    function endSubscriptionProvider(        \r\n        address subscriberAddress,\r\n        bytes32 endpoint\r\n    )\r\n        public \r\n    {\r\n        // Emit an event on success about who ended the contract\r\n        if (endSubscription(msg.sender, subscriberAddress, endpoint))\r\n            emit DataSubscriptionEnd(\r\n                msg.sender, \r\n                subscriberAddress, \r\n                SubscriptionTerminator.Provider\r\n            );\r\n    }\r\n\r\n    /// @dev Finish the data feed from the subscriber\r\n    function endSubscriptionSubscriber(\r\n        address providerAddress,\r\n        bytes32 endpoint\r\n    )\r\n        public \r\n    {\r\n        // Emit an event on success about who ended the contract\r\n        if (endSubscription(providerAddress, msg.sender, endpoint))\r\n            emit DataSubscriptionEnd(\r\n                providerAddress,\r\n                msg.sender,\r\n                SubscriptionTerminator.Subscriber\r\n            );\r\n    }\r\n\r\n    /// @dev Finish the data feed\r\n    function endSubscription(        \r\n        address providerAddress,\r\n        address subscriberAddress,\r\n        bytes32 endpoint\r\n    )\r\n        private\r\n        returns (bool)\r\n    {\r\n        uint256 dots = stor.getDots(providerAddress, subscriberAddress, endpoint);\r\n        uint256 preblockend = stor.getPreBlockEnd(providerAddress, subscriberAddress, endpoint);\r\n        // Make sure the subscriber has a subscription\r\n        require(dots > 0);\r\n\r\n        if (block.number < preblockend) {\r\n            // Subscription ended early\r\n            uint256 earnedDots = (block.number * dots) / preblockend;\r\n            uint256 returnedDots = dots - earnedDots;\r\n\r\n            // Transfer the earned dots to the provider\r\n            bondage.releaseDots(\r\n                subscriberAddress,\r\n                providerAddress,\r\n                endpoint,\r\n                earnedDots\r\n            );\r\n            //  Transfer the returned dots to the subscriber\r\n            bondage.releaseDots(\r\n                subscriberAddress,\r\n                subscriberAddress,\r\n                endpoint,\r\n                returnedDots\r\n            );\r\n        } else {\r\n            // Transfer all the dots\r\n            bondage.releaseDots(\r\n                subscriberAddress,\r\n                providerAddress,\r\n                endpoint,\r\n                dots\r\n            );\r\n        }\r\n        // Kill the subscription\r\n        stor.deleteSubscription(providerAddress, subscriberAddress, endpoint);\r\n        return true;\r\n    }    \r\n}\r\n",
  "sourcePath": "C:\\Assets\\Zap-monorepo\\packages\\Utils\\node_modules\\zap_contracts\\contracts\\platform\\arbiter\\Arbiter.sol",
  "compiler": {
    "name": "solc",
    "version": "0.4.24+commit.e67f0147.Emscripten.clang"
  },
  "schemaVersion": "2.0.1",
  "updatedAt": "2018-07-16T12:12:49.187Z"
}