{
  "contractName": "Bondage",
  "abi": [
    {
      "constant": true,
      "inputs": [],
      "name": "arbiterAddress",
      "outputs": [
        {
          "name": "",
          "type": "address"
        }
      ],
      "payable": false,
      "stateMutability": "view",
      "type": "function"
    },
    {
      "constant": true,
      "inputs": [],
      "name": "storageAddress",
      "outputs": [
        {
          "name": "",
          "type": "address"
        }
      ],
      "payable": false,
      "stateMutability": "view",
      "type": "function"
    },
    {
      "constant": true,
      "inputs": [],
      "name": "owner",
      "outputs": [
        {
          "name": "",
          "type": "address"
        }
      ],
      "payable": false,
      "stateMutability": "view",
      "type": "function"
    },
    {
      "constant": false,
      "inputs": [],
      "name": "selfDestruct",
      "outputs": [],
      "payable": false,
      "stateMutability": "nonpayable",
      "type": "function"
    },
    {
      "constant": false,
      "inputs": [
        {
          "name": "newOwner",
          "type": "address"
        }
      ],
      "name": "transferOwnership",
      "outputs": [],
      "payable": false,
      "stateMutability": "nonpayable",
      "type": "function"
    },
    {
      "constant": true,
      "inputs": [],
      "name": "dispatchAddress",
      "outputs": [
        {
          "name": "",
          "type": "address"
        }
      ],
      "payable": false,
      "stateMutability": "view",
      "type": "function"
    },
    {
      "inputs": [
        {
          "name": "_storageAddress",
          "type": "address"
        },
        {
          "name": "_tokenAddress",
          "type": "address"
        },
        {
          "name": "_currentCostAddress",
          "type": "address"
        }
      ],
      "payable": false,
      "stateMutability": "nonpayable",
      "type": "constructor"
    },
    {
      "anonymous": false,
      "inputs": [
        {
          "indexed": true,
          "name": "holder",
          "type": "address"
        },
        {
          "indexed": true,
          "name": "oracle",
          "type": "address"
        },
        {
          "indexed": true,
          "name": "endpoint",
          "type": "bytes32"
        },
        {
          "indexed": false,
          "name": "numZap",
          "type": "uint256"
        },
        {
          "indexed": false,
          "name": "numDots",
          "type": "uint256"
        }
      ],
      "name": "Bound",
      "type": "event"
    },
    {
      "anonymous": false,
      "inputs": [
        {
          "indexed": true,
          "name": "holder",
          "type": "address"
        },
        {
          "indexed": true,
          "name": "oracle",
          "type": "address"
        },
        {
          "indexed": true,
          "name": "endpoint",
          "type": "bytes32"
        },
        {
          "indexed": false,
          "name": "numDots",
          "type": "uint256"
        }
      ],
      "name": "Unbound",
      "type": "event"
    },
    {
      "anonymous": false,
      "inputs": [
        {
          "indexed": true,
          "name": "holder",
          "type": "address"
        },
        {
          "indexed": true,
          "name": "oracle",
          "type": "address"
        },
        {
          "indexed": true,
          "name": "endpoint",
          "type": "bytes32"
        },
        {
          "indexed": false,
          "name": "numDots",
          "type": "uint256"
        }
      ],
      "name": "Escrowed",
      "type": "event"
    },
    {
      "anonymous": false,
      "inputs": [
        {
          "indexed": true,
          "name": "holder",
          "type": "address"
        },
        {
          "indexed": true,
          "name": "oracle",
          "type": "address"
        },
        {
          "indexed": true,
          "name": "endpoint",
          "type": "bytes32"
        },
        {
          "indexed": false,
          "name": "numDots",
          "type": "uint256"
        }
      ],
      "name": "Released",
      "type": "event"
    },
    {
      "anonymous": false,
      "inputs": [
        {
          "indexed": true,
          "name": "previousOwner",
          "type": "address"
        },
        {
          "indexed": true,
          "name": "newOwner",
          "type": "address"
        }
      ],
      "name": "OwnershipTransferred",
      "type": "event"
    },
    {
      "constant": false,
      "inputs": [
        {
          "name": "_arbiterAddress",
          "type": "address"
        }
      ],
      "name": "setArbiterAddress",
      "outputs": [],
      "payable": false,
      "stateMutability": "nonpayable",
      "type": "function"
    },
    {
      "constant": false,
      "inputs": [
        {
          "name": "_dispatchAddress",
          "type": "address"
        }
      ],
      "name": "setDispatchAddress",
      "outputs": [],
      "payable": false,
      "stateMutability": "nonpayable",
      "type": "function"
    },
    {
      "constant": false,
      "inputs": [
        {
          "name": "currentCostAddress",
          "type": "address"
        }
      ],
      "name": "setCurrentCostAddress",
      "outputs": [],
      "payable": false,
      "stateMutability": "nonpayable",
      "type": "function"
    },
    {
      "constant": false,
      "inputs": [
        {
          "name": "oracleAddress",
          "type": "address"
        },
        {
          "name": "endpoint",
          "type": "bytes32"
        },
        {
          "name": "numZap",
          "type": "uint256"
        }
      ],
      "name": "bond",
      "outputs": [
        {
          "name": "bound",
          "type": "uint256"
        }
      ],
      "payable": false,
      "stateMutability": "nonpayable",
      "type": "function"
    },
    {
      "constant": false,
      "inputs": [
        {
          "name": "oracleAddress",
          "type": "address"
        },
        {
          "name": "endpoint",
          "type": "bytes32"
        },
        {
          "name": "numDots",
          "type": "uint256"
        }
      ],
      "name": "unbond",
      "outputs": [
        {
          "name": "unbound",
          "type": "uint256"
        }
      ],
      "payable": false,
      "stateMutability": "nonpayable",
      "type": "function"
    },
    {
      "constant": false,
      "inputs": [
        {
          "name": "holderAddress",
          "type": "address"
        },
        {
          "name": "oracleAddress",
          "type": "address"
        },
        {
          "name": "endpoint",
          "type": "bytes32"
        },
        {
          "name": "numZap",
          "type": "uint256"
        }
      ],
      "name": "delegateBond",
      "outputs": [
        {
          "name": "boundDots",
          "type": "uint256"
        }
      ],
      "payable": false,
      "stateMutability": "nonpayable",
      "type": "function"
    },
    {
      "constant": false,
      "inputs": [
        {
          "name": "holderAddress",
          "type": "address"
        },
        {
          "name": "oracleAddress",
          "type": "address"
        },
        {
          "name": "endpoint",
          "type": "bytes32"
        },
        {
          "name": "numDots",
          "type": "uint256"
        }
      ],
      "name": "escrowDots",
      "outputs": [
        {
          "name": "success",
          "type": "bool"
        }
      ],
      "payable": false,
      "stateMutability": "nonpayable",
      "type": "function"
    },
    {
      "constant": false,
      "inputs": [
        {
          "name": "holderAddress",
          "type": "address"
        },
        {
          "name": "oracleAddress",
          "type": "address"
        },
        {
          "name": "endpoint",
          "type": "bytes32"
        },
        {
          "name": "numDots",
          "type": "uint256"
        }
      ],
      "name": "releaseDots",
      "outputs": [
        {
          "name": "success",
          "type": "bool"
        }
      ],
      "payable": false,
      "stateMutability": "nonpayable",
      "type": "function"
    },
    {
      "constant": true,
      "inputs": [
        {
          "name": "oracleAddress",
          "type": "address"
        },
        {
          "name": "endpoint",
          "type": "bytes32"
        },
        {
          "name": "numDots",
          "type": "uint256"
        }
      ],
      "name": "calcZapForDots",
      "outputs": [
        {
          "name": "numZap",
          "type": "uint256"
        }
      ],
      "payable": false,
      "stateMutability": "view",
      "type": "function"
    },
    {
      "constant": true,
      "inputs": [
        {
          "name": "oracleAddress",
          "type": "address"
        },
        {
          "name": "endpoint",
          "type": "bytes32"
        },
        {
          "name": "numZap",
          "type": "uint256"
        }
      ],
      "name": "calcBondRate",
      "outputs": [
        {
          "name": "",
          "type": "uint256"
        },
        {
          "name": "",
          "type": "uint256"
        }
      ],
      "payable": false,
      "stateMutability": "view",
      "type": "function"
    },
    {
      "constant": true,
      "inputs": [
        {
          "name": "oracleAddress",
          "type": "address"
        },
        {
          "name": "endpoint",
          "type": "bytes32"
        },
        {
          "name": "totalBound",
          "type": "uint256"
        }
      ],
      "name": "currentCostOfDot",
      "outputs": [
        {
          "name": "cost",
          "type": "uint256"
        }
      ],
      "payable": false,
      "stateMutability": "view",
      "type": "function"
    },
    {
      "constant": true,
      "inputs": [
        {
          "name": "oracleAddress",
          "type": "address"
        },
        {
          "name": "endpoint",
          "type": "bytes32"
        }
      ],
      "name": "dotLimit",
      "outputs": [
        {
          "name": "limit",
          "type": "uint256"
        }
      ],
      "payable": false,
      "stateMutability": "view",
      "type": "function"
    },
    {
      "constant": true,
      "inputs": [
        {
          "name": "oracleAddress",
          "type": "address"
        },
        {
          "name": "endpoint",
          "type": "bytes32"
        }
      ],
      "name": "getDotsIssued",
      "outputs": [
        {
          "name": "dots",
          "type": "uint256"
        }
      ],
      "payable": false,
      "stateMutability": "view",
      "type": "function"
    },
    {
      "constant": true,
      "inputs": [
        {
          "name": "holderAddress",
          "type": "address"
        },
        {
          "name": "oracleAddress",
          "type": "address"
        },
        {
          "name": "endpoint",
          "type": "bytes32"
        }
      ],
      "name": "getBoundDots",
      "outputs": [
        {
          "name": "dots",
          "type": "uint256"
        }
      ],
      "payable": false,
      "stateMutability": "view",
      "type": "function"
    },
    {
      "constant": true,
      "inputs": [
        {
          "name": "oracleAddress",
          "type": "address"
        },
        {
          "name": "endpoint",
          "type": "bytes32"
        }
      ],
      "name": "getZapBound",
      "outputs": [
        {
          "name": "",
          "type": "uint256"
        }
      ],
      "payable": false,
      "stateMutability": "view",
      "type": "function"
    }
  ],
  "bytecode": "0x6080604052670de0b6b3a764000060045534801561001c57600080fd5b50604051606080612eb6833981018060405281019080805190602001909291908051906020019092919080519060200190929190505050336000806101000a81548173ffffffffffffffffffffffffffffffffffffffff021916908373ffffffffffffffffffffffffffffffffffffffff16021790555082600560006101000a81548173ffffffffffffffffffffffffffffffffffffffff021916908373ffffffffffffffffffffffffffffffffffffffff16021790555082600160006101000a81548173ffffffffffffffffffffffffffffffffffffffff021916908373ffffffffffffffffffffffffffffffffffffffff16021790555081600360006101000a81548173ffffffffffffffffffffffffffffffffffffffff021916908373ffffffffffffffffffffffffffffffffffffffff16021790555080600260006101000a81548173ffffffffffffffffffffffffffffffffffffffff021916908373ffffffffffffffffffffffffffffffffffffffff160217905550505050612d0d806101a96000396000f30060806040526004361061011d576000357c0100000000000000000000000000000000000000000000000000000000900463ffffffff1680630cf130101461012257806316614c981461016557806319ec825c146101f85780631d7b5e221461025d57806321cb4ec7146102c25780633b058aa714610327578063456e2d7a146103ba5780635d799306146103fd57806385aa92a7146104545780638da5cb5b146104ab57806399275cc7146105025780639cb8a26a14610571578063a06fe77514610588578063b44efd8f146105f7578063b6105f151461063a578063bbee3694146106a9578063ca01fed51461072e578063cbdaf0c8146107bd578063ec8e2dd71461082c578063f2fde38b146108a2578063f528c949146108e5575b600080fd5b34801561012e57600080fd5b50610163600480360381019080803573ffffffffffffffffffffffffffffffffffffffff16906020019092919050505061093c565b005b34801561017157600080fd5b506101de600480360381019080803573ffffffffffffffffffffffffffffffffffffffff169060200190929190803573ffffffffffffffffffffffffffffffffffffffff1690602001909291908035600019169060200190929190803590602001909291905050506109db565b604051808215151515815260200191505060405180910390f35b34801561020457600080fd5b50610247600480360381019080803573ffffffffffffffffffffffffffffffffffffffff1690602001909291908035600019169060200190929190505050610db5565b6040518082815260200191505060405180910390f35b34801561026957600080fd5b506102ac600480360381019080803573ffffffffffffffffffffffffffffffffffffffff1690602001909291908035600019169060200190929190505050610ec7565b6040518082815260200191505060405180910390f35b3480156102ce57600080fd5b50610311600480360381019080803573ffffffffffffffffffffffffffffffffffffffff1690602001909291908035600019169060200190929190505050610fd9565b6040518082815260200191505060405180910390f35b34801561033357600080fd5b506103a0600480360381019080803573ffffffffffffffffffffffffffffffffffffffff169060200190929190803573ffffffffffffffffffffffffffffffffffffffff1690602001909291908035600019169060200190929190803590602001909291905050506110eb565b604051808215151515815260200191505060405180910390f35b3480156103c657600080fd5b506103fb600480360381019080803573ffffffffffffffffffffffffffffffffffffffff1690602001909291905050506115f6565b005b34801561040957600080fd5b50610412611695565b604051808273ffffffffffffffffffffffffffffffffffffffff1673ffffffffffffffffffffffffffffffffffffffff16815260200191505060405180910390f35b34801561046057600080fd5b506104696116bb565b604051808273ffffffffffffffffffffffffffffffffffffffff1673ffffffffffffffffffffffffffffffffffffffff16815260200191505060405180910390f35b3480156104b757600080fd5b506104c06116e1565b604051808273ffffffffffffffffffffffffffffffffffffffff1673ffffffffffffffffffffffffffffffffffffffff16815260200191505060405180910390f35b34801561050e57600080fd5b5061055b600480360381019080803573ffffffffffffffffffffffffffffffffffffffff169060200190929190803560001916906020019092919080359060200190929190505050611706565b6040518082815260200191505060405180910390f35b34801561057d57600080fd5b5061058661178f565b005b34801561059457600080fd5b506105e1600480360381019080803573ffffffffffffffffffffffffffffffffffffffff169060200190929190803560001916906020019092919080359060200190929190505050611824565b6040518082815260200191505060405180910390f35b34801561060357600080fd5b50610638600480360381019080803573ffffffffffffffffffffffffffffffffffffffff1690602001909291905050506118a5565b005b34801561064657600080fd5b50610693600480360381019080803573ffffffffffffffffffffffffffffffffffffffff169060200190929190803560001916906020019092919080359060200190929190505050611944565b6040518082815260200191505060405180910390f35b3480156106b557600080fd5b50610718600480360381019080803573ffffffffffffffffffffffffffffffffffffffff169060200190929190803573ffffffffffffffffffffffffffffffffffffffff1690602001909291908035600019169060200190929190505050611987565b6040518082815260200191505060405180910390f35b34801561073a57600080fd5b506107a7600480360381019080803573ffffffffffffffffffffffffffffffffffffffff169060200190929190803573ffffffffffffffffffffffffffffffffffffffff169060200190929190803560001916906020019092919080359060200190929190505050611ace565b6040518082815260200191505060405180910390f35b3480156107c957600080fd5b50610816600480360381019080803573ffffffffffffffffffffffffffffffffffffffff169060200190929190803560001916906020019092919080359060200190929190505050611b58565b6040518082815260200191505060405180910390f35b34801561083857600080fd5b50610885600480360381019080803573ffffffffffffffffffffffffffffffffffffffff169060200190929190803560001916906020019092919080359060200190929190505050611c73565b604051808381526020018281526020019250505060405180910390f35b3480156108ae57600080fd5b506108e3600480360381019080803573ffffffffffffffffffffffffffffffffffffffff169060200190929190505050611d27565b005b3480156108f157600080fd5b506108fa611e7c565b604051808273ffffffffffffffffffffffffffffffffffffffff1673ffffffffffffffffffffffffffffffffffffffff16815260200191505060405180910390f35b6000809054906101000a900473ffffffffffffffffffffffffffffffffffffffff1673ffffffffffffffffffffffffffffffffffffffff163373ffffffffffffffffffffffffffffffffffffffff1614151561099757600080fd5b80600660006101000a81548173ffffffffffffffffffffffffffffffffffffffff021916908373ffffffffffffffffffffffffffffffffffffffff16021790555050565b6000806000600660009054906101000a900473ffffffffffffffffffffffffffffffffffffffff1673ffffffffffffffffffffffffffffffffffffffff163373ffffffffffffffffffffffffffffffffffffffff161480610a895750600760009054906101000a900473ffffffffffffffffffffffffffffffffffffffff1673ffffffffffffffffffffffffffffffffffffffff163373ffffffffffffffffffffffffffffffffffffffff16145b15610dab57610a99878787611987565b915083905081841115610aaa578190505b600160009054906101000a900473ffffffffffffffffffffffffffffffffffffffff1673ffffffffffffffffffffffffffffffffffffffff1663eef0e6b9888888856040518563ffffffff167c0100000000000000000000000000000000000000000000000000000000028152600401808573ffffffffffffffffffffffffffffffffffffffff1673ffffffffffffffffffffffffffffffffffffffff1681526020018473ffffffffffffffffffffffffffffffffffffffff1673ffffffffffffffffffffffffffffffffffffffff1681526020018360001916600019168152602001828152602001807f7375620000000000000000000000000000000000000000000000000000000000815250602001945050505050600060405180830381600087803b158015610bdb57600080fd5b505af1158015610bef573d6000803e3d6000fd5b50505050600160009054906101000a900473ffffffffffffffffffffffffffffffffffffffff1673ffffffffffffffffffffffffffffffffffffffff1663875681cb888888856040518563ffffffff167c0100000000000000000000000000000000000000000000000000000000028152600401808573ffffffffffffffffffffffffffffffffffffffff1673ffffffffffffffffffffffffffffffffffffffff1681526020018473ffffffffffffffffffffffffffffffffffffffff1673ffffffffffffffffffffffffffffffffffffffff1681526020018360001916600019168152602001828152602001807f6164640000000000000000000000000000000000000000000000000000000000815250602001945050505050600060405180830381600087803b158015610d2457600080fd5b505af1158015610d38573d6000803e3d6000fd5b5050505084600019168673ffffffffffffffffffffffffffffffffffffffff168873ffffffffffffffffffffffffffffffffffffffff167f2738c9bd1693cadc7b4fabefd6467b42f901650c7401bad1076dbc984f4b15d0846040518082815260200191505060405180910390a4600192505b5050949350505050565b6000600160009054906101000a900473ffffffffffffffffffffffffffffffffffffffff1673ffffffffffffffffffffffffffffffffffffffff16633fe7968584846040518363ffffffff167c0100000000000000000000000000000000000000000000000000000000028152600401808373ffffffffffffffffffffffffffffffffffffffff1673ffffffffffffffffffffffffffffffffffffffff168152602001826000191660001916815260200192505050602060405180830381600087803b158015610e8457600080fd5b505af1158015610e98573d6000803e3d6000fd5b505050506040513d6020811015610eae57600080fd5b8101908080519060200190929190505050905092915050565b6000600160009054906101000a900473ffffffffffffffffffffffffffffffffffffffff1673ffffffffffffffffffffffffffffffffffffffff16631d7b5e2284846040518363ffffffff167c0100000000000000000000000000000000000000000000000000000000028152600401808373ffffffffffffffffffffffffffffffffffffffff1673ffffffffffffffffffffffffffffffffffffffff168152602001826000191660001916815260200192505050602060405180830381600087803b158015610f9657600080fd5b505af1158015610faa573d6000803e3d6000fd5b505050506040513d6020811015610fc057600080fd5b8101908080519060200190929190505050905092915050565b6000600260009054906101000a900473ffffffffffffffffffffffffffffffffffffffff1673ffffffffffffffffffffffffffffffffffffffff1663c1ca69c484846040518363ffffffff167c0100000000000000000000000000000000000000000000000000000000028152600401808373ffffffffffffffffffffffffffffffffffffffff1673ffffffffffffffffffffffffffffffffffffffff168152602001826000191660001916815260200192505050602060405180830381600087803b1580156110a857600080fd5b505af11580156110bc573d6000803e3d6000fd5b505050506040513d60208110156110d257600080fd5b8101908080519060200190929190505050905092915050565b6000806000600660009054906101000a900473ffffffffffffffffffffffffffffffffffffffff1673ffffffffffffffffffffffffffffffffffffffff163373ffffffffffffffffffffffffffffffffffffffff1614806111995750600760009054906101000a900473ffffffffffffffffffffffffffffffffffffffff1673ffffffffffffffffffffffffffffffffffffffff163373ffffffffffffffffffffffffffffffffffffffff16145b156115ec57600160009054906101000a900473ffffffffffffffffffffffffffffffffffffffff1673ffffffffffffffffffffffffffffffffffffffff16637a68c23a8888886040518463ffffffff167c0100000000000000000000000000000000000000000000000000000000028152600401808473ffffffffffffffffffffffffffffffffffffffff1673ffffffffffffffffffffffffffffffffffffffff1681526020018373ffffffffffffffffffffffffffffffffffffffff1673ffffffffffffffffffffffffffffffffffffffff16815260200182600019166000191681526020019350505050602060405180830381600087803b15801561129f57600080fd5b505af11580156112b3573d6000803e3d6000fd5b505050506040513d60208110156112c957600080fd5b81019080805190602001909291905050509150839050818411156112eb578190505b600160009054906101000a900473ffffffffffffffffffffffffffffffffffffffff1673ffffffffffffffffffffffffffffffffffffffff1663875681cb888888856040518563ffffffff167c0100000000000000000000000000000000000000000000000000000000028152600401808573ffffffffffffffffffffffffffffffffffffffff1673ffffffffffffffffffffffffffffffffffffffff1681526020018473ffffffffffffffffffffffffffffffffffffffff1673ffffffffffffffffffffffffffffffffffffffff1681526020018360001916600019168152602001828152602001807f7375620000000000000000000000000000000000000000000000000000000000815250602001945050505050600060405180830381600087803b15801561141c57600080fd5b505af1158015611430573d6000803e3d6000fd5b50505050600160009054906101000a900473ffffffffffffffffffffffffffffffffffffffff1673ffffffffffffffffffffffffffffffffffffffff1663eef0e6b9878888856040518563ffffffff167c0100000000000000000000000000000000000000000000000000000000028152600401808573ffffffffffffffffffffffffffffffffffffffff1673ffffffffffffffffffffffffffffffffffffffff1681526020018473ffffffffffffffffffffffffffffffffffffffff1673ffffffffffffffffffffffffffffffffffffffff1681526020018360001916600019168152602001828152602001807f6164640000000000000000000000000000000000000000000000000000000000815250602001945050505050600060405180830381600087803b15801561156557600080fd5b505af1158015611579573d6000803e3d6000fd5b5050505084600019168673ffffffffffffffffffffffffffffffffffffffff168873ffffffffffffffffffffffffffffffffffffffff167f2afa253d0464d87b039f71a6964ed5c028a3a3c68048d909fbee4b1610756e79846040518082815260200191505060405180910390a4600192505b5050949350505050565b6000809054906101000a900473ffffffffffffffffffffffffffffffffffffffff1673ffffffffffffffffffffffffffffffffffffffff163373ffffffffffffffffffffffffffffffffffffffff1614151561165157600080fd5b80600260006101000a81548173ffffffffffffffffffffffffffffffffffffffff021916908373ffffffffffffffffffffffffffffffffffffffff16021790555050565b600660009054906101000a900473ffffffffffffffffffffffffffffffffffffffff1681565b600560009054906101000a900473ffffffffffffffffffffffffffffffffffffffff1681565b6000809054906101000a900473ffffffffffffffffffffffffffffffffffffffff1681565b600061171433858585611ea2565b905082600019168473ffffffffffffffffffffffffffffffffffffffff163373ffffffffffffffffffffffffffffffffffffffff167fe8fd3c22d82ce4b5a0addda04f808686ef3d592b33cadc8435ce17dc106ced6c8585604051808381526020018281526020019250505060405180910390a49392505050565b6000809054906101000a900473ffffffffffffffffffffffffffffffffffffffff1673ffffffffffffffffffffffffffffffffffffffff163373ffffffffffffffffffffffffffffffffffffffff161415156117ea57600080fd5b6000809054906101000a900473ffffffffffffffffffffffffffffffffffffffff1673ffffffffffffffffffffffffffffffffffffffff16ff5b6000611832338585856126b9565b905082600019168473ffffffffffffffffffffffffffffffffffffffff163373ffffffffffffffffffffffffffffffffffffffff167f60b9c649cd4eb0d02bcdc2d69fd86d12022c0bf7ff8aa61e5ac0bc121fc3cac0856040518082815260200191505060405180910390a49392505050565b6000809054906101000a900473ffffffffffffffffffffffffffffffffffffffff1673ffffffffffffffffffffffffffffffffffffffff163373ffffffffffffffffffffffffffffffffffffffff1614151561190057600080fd5b80600760006101000a81548173ffffffffffffffffffffffffffffffffffffffff021916908373ffffffffffffffffffffffffffffffffffffffff16021790555050565b600080600190505b828111151561197c5761196b8585836119658989610ec7565b01611b58565b82019150808060010191505061194c565b819150509392505050565b6000600160009054906101000a900473ffffffffffffffffffffffffffffffffffffffff1673ffffffffffffffffffffffffffffffffffffffff1663bbee36948585856040518463ffffffff167c0100000000000000000000000000000000000000000000000000000000028152600401808473ffffffffffffffffffffffffffffffffffffffff1673ffffffffffffffffffffffffffffffffffffffff1681526020018373ffffffffffffffffffffffffffffffffffffffff1673ffffffffffffffffffffffffffffffffffffffff16815260200182600019166000191681526020019350505050602060405180830381600087803b158015611a8a57600080fd5b505af1158015611a9e573d6000803e3d6000fd5b505050506040513d6020811015611ab457600080fd5b810190808051906020019092919050505090509392505050565b6000611adc85858585611ea2565b905082600019168473ffffffffffffffffffffffffffffffffffffffff168673ffffffffffffffffffffffffffffffffffffffff167fe8fd3c22d82ce4b5a0addda04f808686ef3d592b33cadc8435ce17dc106ced6c8585604051808381526020018281526020019250505060405180910390a4949350505050565b6000600260009054906101000a900473ffffffffffffffffffffffffffffffffffffffff1673ffffffffffffffffffffffffffffffffffffffff1663ecca1fad8585856040518463ffffffff167c0100000000000000000000000000000000000000000000000000000000028152600401808473ffffffffffffffffffffffffffffffffffffffff1673ffffffffffffffffffffffffffffffffffffffff16815260200183600019166000191681526020018281526020019350505050602060405180830381600087803b158015611c2f57600080fd5b505af1158015611c43573d6000803e3d6000fd5b505050506040513d6020811015611c5957600080fd5b810190808051906020019092919050505090509392505050565b600080600080600080600080881415611c985760008081915080905096509650611d1a565b6000935060019250611caa8a8a610fd9565b915060648210611cbb576064611cbd565b815b9150611cc98a8a610ec7565b90505b81831015611d1357611ce18a8a858401611b58565b94508488101515611cfb5784880397508484019350611d06565b600183039250611d13565b8280600101935050611ccc565b8383965096505b5050505050935093915050565b6000809054906101000a900473ffffffffffffffffffffffffffffffffffffffff1673ffffffffffffffffffffffffffffffffffffffff163373ffffffffffffffffffffffffffffffffffffffff16141515611d8257600080fd5b600073ffffffffffffffffffffffffffffffffffffffff168173ffffffffffffffffffffffffffffffffffffffff1614151515611dbe57600080fd5b8073ffffffffffffffffffffffffffffffffffffffff166000809054906101000a900473ffffffffffffffffffffffffffffffffffffffff1673ffffffffffffffffffffffffffffffffffffffff167f8be0079c531659141344cd1fd0a4f28419497f9722a3daafe3b4186f6b6457e060405160405180910390a3806000806101000a81548173ffffffffffffffffffffffffffffffffffffffff021916908373ffffffffffffffffffffffffffffffffffffffff16021790555050565b600760009054906101000a900473ffffffffffffffffffffffffffffffffffffffff1681565b6000611eaf848484611c73565b8092508193505050600160009054906101000a900473ffffffffffffffffffffffffffffffffffffffff1673ffffffffffffffffffffffffffffffffffffffff1663036459c086866040518363ffffffff167c0100000000000000000000000000000000000000000000000000000000028152600401808373ffffffffffffffffffffffffffffffffffffffff1673ffffffffffffffffffffffffffffffffffffffff1681526020018273ffffffffffffffffffffffffffffffffffffffff1673ffffffffffffffffffffffffffffffffffffffff16815260200192505050602060405180830381600087803b158015611fa857600080fd5b505af1158015611fbc573d6000803e3d6000fd5b505050506040513d6020811015611fd257600080fd5b810190808051906020019092919050505015156121fc57600160009054906101000a900473ffffffffffffffffffffffffffffffffffffffff1673ffffffffffffffffffffffffffffffffffffffff166372fc186786866040518363ffffffff167c0100000000000000000000000000000000000000000000000000000000028152600401808373ffffffffffffffffffffffffffffffffffffffff1673ffffffffffffffffffffffffffffffffffffffff1681526020018273ffffffffffffffffffffffffffffffffffffffff1673ffffffffffffffffffffffffffffffffffffffff16815260200192505050600060405180830381600087803b1580156120da57600080fd5b505af11580156120ee573d6000803e3d6000fd5b50505050600160009054906101000a900473ffffffffffffffffffffffffffffffffffffffff1673ffffffffffffffffffffffffffffffffffffffff16636360e25186866040518363ffffffff167c0100000000000000000000000000000000000000000000000000000000028152600401808373ffffffffffffffffffffffffffffffffffffffff1673ffffffffffffffffffffffffffffffffffffffff1681526020018273ffffffffffffffffffffffffffffffffffffffff1673ffffffffffffffffffffffffffffffffffffffff16815260200192505050600060405180830381600087803b1580156121e357600080fd5b505af11580156121f7573d6000803e3d6000fd5b505050505b600360009054906101000a900473ffffffffffffffffffffffffffffffffffffffff1673ffffffffffffffffffffffffffffffffffffffff166323b872dd3330856040518463ffffffff167c0100000000000000000000000000000000000000000000000000000000028152600401808473ffffffffffffffffffffffffffffffffffffffff1673ffffffffffffffffffffffffffffffffffffffff1681526020018373ffffffffffffffffffffffffffffffffffffffff1673ffffffffffffffffffffffffffffffffffffffff1681526020018281526020019350505050602060405180830381600087803b1580156122f557600080fd5b505af1158015612309573d6000803e3d6000fd5b505050506040513d602081101561231f57600080fd5b8101908080519060200190929190505050151561233b57600080fd5b600160009054906101000a900473ffffffffffffffffffffffffffffffffffffffff1673ffffffffffffffffffffffffffffffffffffffff1663eef0e6b9868686856040518563ffffffff167c0100000000000000000000000000000000000000000000000000000000028152600401808573ffffffffffffffffffffffffffffffffffffffff1673ffffffffffffffffffffffffffffffffffffffff1681526020018473ffffffffffffffffffffffffffffffffffffffff1673ffffffffffffffffffffffffffffffffffffffff1681526020018360001916600019168152602001828152602001807f6164640000000000000000000000000000000000000000000000000000000000815250602001945050505050600060405180830381600087803b15801561246c57600080fd5b505af1158015612480573d6000803e3d6000fd5b50505050600160009054906101000a900473ffffffffffffffffffffffffffffffffffffffff1673ffffffffffffffffffffffffffffffffffffffff166350ddd9a28585846040518463ffffffff167c0100000000000000000000000000000000000000000000000000000000028152600401808473ffffffffffffffffffffffffffffffffffffffff1673ffffffffffffffffffffffffffffffffffffffff1681526020018360001916600019168152602001828152602001807f61646400000000000000000000000000000000000000000000000000000000008152506020019350505050600060405180830381600087803b15801561258157600080fd5b505af1158015612595573d6000803e3d6000fd5b50505050600160009054906101000a900473ffffffffffffffffffffffffffffffffffffffff1673ffffffffffffffffffffffffffffffffffffffff166318d4d8a88585856040518463ffffffff167c0100000000000000000000000000000000000000000000000000000000028152600401808473ffffffffffffffffffffffffffffffffffffffff1673ffffffffffffffffffffffffffffffffffffffff1681526020018360001916600019168152602001828152602001807f61646400000000000000000000000000000000000000000000000000000000008152506020019350505050600060405180830381600087803b15801561269657600080fd5b505af11580156126aa573d6000803e3d6000fd5b50505050809050949350505050565b6000806000806000600160009054906101000a900473ffffffffffffffffffffffffffffffffffffffff1673ffffffffffffffffffffffffffffffffffffffff166341f1c2ac8a8a8a6040518463ffffffff167c0100000000000000000000000000000000000000000000000000000000028152600401808473ffffffffffffffffffffffffffffffffffffffff1673ffffffffffffffffffffffffffffffffffffffff1681526020018373ffffffffffffffffffffffffffffffffffffffff1673ffffffffffffffffffffffffffffffffffffffff16815260200182600019166000191681526020019350505050602060405180830381600087803b1580156127c257600080fd5b505af11580156127d6573d6000803e3d6000fd5b505050506040513d60208110156127ec57600080fd5b8101908080519060200190929190505050935085841015801561280f5750600086115b15612cd057600192506128228888610ec7565b90505b858311151561284f57828103915061283e888884611b58565b850194508280600101935050612825565b600160009054906101000a900473ffffffffffffffffffffffffffffffffffffffff1673ffffffffffffffffffffffffffffffffffffffff166318d4d8a88989886040518463ffffffff167c0100000000000000000000000000000000000000000000000000000000028152600401808473ffffffffffffffffffffffffffffffffffffffff1673ffffffffffffffffffffffffffffffffffffffff1681526020018360001916600019168152602001828152602001807f73756200000000000000000000000000000000000000000000000000000000008152506020019350505050600060405180830381600087803b15801561294c57600080fd5b505af1158015612960573d6000803e3d6000fd5b50505050600160009054906101000a900473ffffffffffffffffffffffffffffffffffffffff1673ffffffffffffffffffffffffffffffffffffffff166350ddd9a28989896040518463ffffffff167c0100000000000000000000000000000000000000000000000000000000028152600401808473ffffffffffffffffffffffffffffffffffffffff1673ffffffffffffffffffffffffffffffffffffffff1681526020018360001916600019168152602001828152602001807f73756200000000000000000000000000000000000000000000000000000000008152506020019350505050600060405180830381600087803b158015612a6157600080fd5b505af1158015612a75573d6000803e3d6000fd5b50505050600160009054906101000a900473ffffffffffffffffffffffffffffffffffffffff1673ffffffffffffffffffffffffffffffffffffffff1663eef0e6b98a8a8a876040518563ffffffff167c0100000000000000000000000000000000000000000000000000000000028152600401808573ffffffffffffffffffffffffffffffffffffffff1673ffffffffffffffffffffffffffffffffffffffff1681526020018473ffffffffffffffffffffffffffffffffffffffff1673ffffffffffffffffffffffffffffffffffffffff1681526020018360001916600019168152602001828152602001807f7375620000000000000000000000000000000000000000000000000000000000815250602001945050505050600060405180830381600087803b158015612baa57600080fd5b505af1158015612bbe573d6000803e3d6000fd5b50505050600360009054906101000a900473ffffffffffffffffffffffffffffffffffffffff1673ffffffffffffffffffffffffffffffffffffffff1663a9059cbb8a876040518363ffffffff167c0100000000000000000000000000000000000000000000000000000000028152600401808373ffffffffffffffffffffffffffffffffffffffff1673ffffffffffffffffffffffffffffffffffffffff16815260200182815260200192505050602060405180830381600087803b158015612c8757600080fd5b505af1158015612c9b573d6000803e3d6000fd5b505050506040513d6020811015612cb157600080fd5b810190808051906020019092919050505015612ccf57849450612cd5565b5b600094505b505050509493505050505600a165627a7a72305820c6e6975a9085a4631f156aca8bd580aa655111a15178e27265b3adb762f842b30029",
  "source": "pragma solidity ^0.4.24;\r\n// v1.0\r\n\r\nimport \"../../lib/lifecycle/Destructible.sol\";\r\nimport \"../../lib/ERC20.sol\";\r\nimport \"./currentCost/CurrentCostInterface.sol\";\r\nimport \"./BondageStorage.sol\";\r\nimport \"./BondageInterface.sol\";\r\n\r\ncontract Bondage is Destructible, BondageInterface {\r\n\r\n    event Bound(address indexed holder, address indexed oracle, bytes32 indexed endpoint, uint256 numZap, uint256 numDots);\r\n    event Unbound(address indexed holder, address indexed oracle, bytes32 indexed endpoint, uint256 numDots);\r\n    event Escrowed(address indexed holder, address indexed oracle, bytes32 indexed endpoint, uint256 numDots);\r\n    event Released(address indexed holder, address indexed oracle, bytes32 indexed endpoint, uint256 numDots);\r\n\r\n    BondageStorage stor;\r\n    CurrentCostInterface currentCost;\r\n    ERC20 token;\r\n    uint256 decimals = 10 ** 18;\r\n\r\n    address public storageAddress;\r\n    address public arbiterAddress;\r\n    address public dispatchAddress;\r\n\r\n    // For restricting dot escrow/transfer method calls to Dispatch and Arbiter\r\n    modifier operatorOnly {\r\n        if (msg.sender == arbiterAddress || msg.sender == dispatchAddress)\r\n            _;\r\n    }\r\n\r\n    /// @dev Initialize Storage, Token, anc CurrentCost Contracts\r\n    constructor(address _storageAddress, address _tokenAddress, address _currentCostAddress) public {\r\n        storageAddress = _storageAddress;\r\n        stor = BondageStorage(_storageAddress);\r\n        token = ERC20(_tokenAddress); \r\n        currentCost = CurrentCostInterface(_currentCostAddress);\r\n    }\r\n\r\n    /// @dev Set Arbiter address\r\n    /// @notice This needs to be called upon deployment and after Arbiter update\r\n    function setArbiterAddress(address _arbiterAddress) external onlyOwner {\r\n        arbiterAddress = _arbiterAddress;\r\n    }\r\n    \r\n    /// @dev Set Dispatch address\r\n    /// @notice This needs to be called upon deployment and after Dispatch update\r\n    function setDispatchAddress(address _dispatchAddress) external onlyOwner {\r\n        dispatchAddress = _dispatchAddress;\r\n    }\r\n\r\n    /// @notice Upgdate currentCostOfDot function (barring no interface change)\r\n    function setCurrentCostAddress(address currentCostAddress) public onlyOwner {\r\n        currentCost = CurrentCostInterface(currentCostAddress);\r\n    }\r\n\r\n    /// @dev will bond to an oracle\r\n    /// @return total ZAP bound to oracle\r\n    function bond(address oracleAddress, bytes32 endpoint, uint256 numZap) external returns (uint256 bound) {\r\n        bound = _bond(msg.sender, oracleAddress, endpoint, numZap);\r\n        emit Bound(msg.sender, oracleAddress, endpoint, numZap, bound);\r\n    }\r\n\r\n    /// @return total ZAP unbound from oracle\r\n    function unbond(address oracleAddress, bytes32 endpoint, uint256 numDots) external returns (uint256 unbound) {\r\n        unbound = _unbond(msg.sender, oracleAddress, endpoint, numDots);\r\n        emit Unbound(msg.sender, oracleAddress, endpoint, numDots);\r\n    }        \r\n\r\n    /// @dev will bond to an oracle on behalf of some holder\r\n    /// @return total ZAP bound to oracle\r\n    function delegateBond(address holderAddress, address oracleAddress, bytes32 endpoint, uint256 numZap) external returns (uint256 boundDots) {\r\n        boundDots = _bond(holderAddress, oracleAddress, endpoint, numZap);\r\n        emit Bound(holderAddress, oracleAddress, endpoint, numZap, boundDots);\r\n    }\r\n\r\n    /// @dev Move numDots dots from provider-requester to bondage according to \r\n    /// data-provider address, holder address, and endpoint specifier (ala 'smart_contract')\r\n    /// Called only by Disptach or Arbiter Contracts\r\n    function escrowDots(        \r\n        address holderAddress,\r\n        address oracleAddress,\r\n        bytes32 endpoint,\r\n        uint256 numDots\r\n    )\r\n        external\r\n        operatorOnly        \r\n        returns (bool success)\r\n    {\r\n        uint256 currentDots = getBoundDots(holderAddress, oracleAddress, endpoint);\r\n        uint256 dotsToEscrow = numDots;\r\n        if (numDots > currentDots) dotsToEscrow = currentDots; \r\n        stor.updateBondValue(holderAddress, oracleAddress, endpoint, dotsToEscrow, \"sub\");\r\n        stor.updateEscrow(holderAddress, oracleAddress, endpoint, dotsToEscrow, \"add\");\r\n        emit Escrowed(holderAddress, oracleAddress, endpoint, dotsToEscrow);\r\n        return true;\r\n    }\r\n\r\n    /// @dev Transfer N dots from fromAddress to destAddress. \r\n    /// Called only by Disptach or Arbiter Contracts\r\n    /// In smart contract endpoint, occurs per satisfied request. \r\n    /// In socket endpoint called on termination of subscription.\r\n    function releaseDots(\r\n        address holderAddress,\r\n        address oracleAddress,\r\n        bytes32 endpoint,\r\n        uint256 numDots\r\n    )\r\n        external\r\n        operatorOnly \r\n        returns (bool success)\r\n    {\r\n        uint256 numEscrowed = stor.getNumEscrow(holderAddress, oracleAddress, endpoint);\r\n        uint256 dotsToEscrow = numDots;\r\n        if (numDots > numEscrowed) dotsToEscrow = numEscrowed;\r\n        stor.updateEscrow(holderAddress, oracleAddress, endpoint, dotsToEscrow, \"sub\");\r\n        stor.updateBondValue(oracleAddress, oracleAddress, endpoint, dotsToEscrow, \"add\");\r\n        emit Released(holderAddress, oracleAddress, endpoint, dotsToEscrow);\r\n        return true;\r\n    }\r\n\r\n    /// @dev Calculate quantity of tokens required for specified amount of dots\r\n    /// for endpoint defined by endpoint and data provider defined by oracleAddress\r\n    function calcZapForDots(\r\n        address oracleAddress,\r\n        bytes32 endpoint,\r\n        uint256 numDots       \r\n    ) \r\n        external\r\n        view\r\n        returns (uint256 numZap)\r\n    {\r\n        for (uint256 i = 1; i <= numDots; i++) {\r\n            numZap += currentCostOfDot(                \r\n                oracleAddress,\r\n                endpoint,\r\n                getDotsIssued(oracleAddress, endpoint) + i\r\n            );\r\n        }\r\n        return numZap;\r\n    }\r\n\r\n    /// @dev Calculate amount of dots which could be purchased with given (numZap) ZAP tokens (max is 1000)\r\n    /// for endpoint specified by endpoint and data-provider address specified by oracleAddress\r\n    function calcBondRate(\r\n        address oracleAddress,\r\n        bytes32 endpoint,\r\n        uint256 numZap\r\n    )\r\n        public\r\n        view\r\n        returns (uint256, uint256) \r\n    {\r\n\r\n        uint256 dotCost;\r\n        if (numZap==0) return (0,0);\r\n\r\n        uint256 maxNumZap = 0;\r\n        uint256 numDots = 1;\r\n\r\n        // cap on dots. temp patch\r\n        uint256 _dotLimit = dotLimit(oracleAddress, endpoint);\r\n        _dotLimit = _dotLimit < 100 ? _dotLimit : 100;\r\n\r\n        uint256 issuedDots = getDotsIssued(oracleAddress, endpoint);\r\n\r\n        for (numDots; numDots < _dotLimit; numDots++) {\r\n        // for (numDots; numDots < dotLimit; numDots++) {\r\n            dotCost = currentCostOfDot(\r\n                oracleAddress,\r\n                endpoint,\r\n                issuedDots + numDots\r\n            );\r\n\r\n            if (numZap >= dotCost) {\r\n                numZap -= dotCost;\r\n                maxNumZap += dotCost;\r\n            } else {\r\n                numDots-=1;\r\n                break;\r\n            }\r\n        }\r\n        return (maxNumZap, numDots);\r\n    }\r\n\r\n    /// @dev Get the current cost of a dot.\r\n    /// @param endpoint specifier\r\n    /// @param oracleAddress data-provider\r\n    /// @param totalBound current number of dots\r\n    function currentCostOfDot(\r\n        address oracleAddress,\r\n        bytes32 endpoint,\r\n        uint256 totalBound\r\n    )\r\n        public\r\n        view\r\n        returns (uint256 cost)\r\n    {\r\n        return currentCost._currentCostOfDot(oracleAddress, endpoint, totalBound);\r\n    }\r\n\r\n    /// @dev Get issuance limit of dots \r\n    /// @param endpoint specifier\r\n    /// @param oracleAddress data-provider\r\n    function dotLimit(\r\n        address oracleAddress,\r\n        bytes32 endpoint\r\n    )\r\n        public\r\n        view\r\n        returns (uint256 limit)\r\n    {\r\n        return currentCost._dotLimit(oracleAddress, endpoint);\r\n    }\r\n\r\n\r\n\r\n    function getDotsIssued(\r\n        address oracleAddress,\r\n        bytes32 endpoint        \r\n    )        \r\n        public\r\n        view\r\n        returns (uint256 dots)\r\n    {\r\n        return stor.getDotsIssued(oracleAddress, endpoint);\r\n    }\r\n\r\n    function getBoundDots(        \r\n        address holderAddress,\r\n        address oracleAddress,\r\n        bytes32 endpoint\r\n    )\r\n        public\r\n        view        \r\n        returns (uint256 dots)\r\n    {\r\n        return stor.getBoundDots(holderAddress, oracleAddress, endpoint);\r\n    }\r\n\r\n    /// @return total ZAP held by contract\r\n    function getZapBound(address oracleAddress, bytes32 endpoint) public view returns (uint256) {\r\n        return stor.getNumZap(oracleAddress, endpoint);\r\n    }\r\n\r\n    function _bond(\r\n        address holderAddress,\r\n        address oracleAddress,\r\n        bytes32 endpoint,\r\n        uint256 numZap        \r\n    )\r\n        private\r\n        returns (uint256 numDots) \r\n    {   \r\n        // This also checks if oracle is registered w/an initialized curve\r\n        (numZap, numDots) = calcBondRate(oracleAddress, endpoint, numZap);\r\n\r\n        if (!stor.isProviderInitialized(holderAddress, oracleAddress)) {            \r\n            stor.setProviderInitialized(holderAddress, oracleAddress);\r\n            stor.addHolderOracle(holderAddress, oracleAddress);\r\n        }\r\n\r\n        // User must have approved contract to transfer working ZAP\r\n        require(token.transferFrom(msg.sender, this, numZap));\r\n\r\n        stor.updateBondValue(holderAddress, oracleAddress, endpoint, numDots, \"add\");        \r\n        stor.updateTotalIssued(oracleAddress, endpoint, numDots, \"add\");\r\n        stor.updateTotalBound(oracleAddress, endpoint, numZap, \"add\");\r\n\r\n        return numDots;\r\n    }\r\n\r\n    function _unbond(        \r\n        address holderAddress,\r\n        address oracleAddress,\r\n        bytes32 endpoint,\r\n        uint256 numDots\r\n    )\r\n        private\r\n        returns (uint256 numZap)\r\n    {\r\n        //currentDots\r\n        uint256 bondValue = stor.getBondValue(holderAddress, oracleAddress, endpoint);\r\n        if (bondValue >= numDots && numDots > 0) {\r\n\r\n            uint256 subTotal = 1;\r\n            uint256 dotsIssued;\r\n            uint256 totalIssued = getDotsIssued(oracleAddress, endpoint);\r\n\r\n            for (subTotal; subTotal <= numDots; subTotal++) {\r\n\r\n                dotsIssued = totalIssued - subTotal;\r\n\r\n                numZap += currentCostOfDot(\r\n                    oracleAddress,\r\n                    endpoint,\r\n                    dotsIssued\r\n                ); \r\n            }    \r\n            stor.updateTotalBound(oracleAddress, endpoint, numZap, \"sub\");\r\n            stor.updateTotalIssued(oracleAddress, endpoint, numDots, \"sub\");\r\n            stor.updateBondValue(holderAddress, oracleAddress, endpoint, subTotal, \"sub\");\r\n\r\n            if(token.transfer(holderAddress, numZap))\r\n                return numZap;\r\n        }\r\n        return 0;\r\n    }\r\n\r\n}\r\n",
  "sourcePath": "C:\\Assets\\Zap-monorepo\\packages\\Utils\\node_modules\\zap_contracts\\contracts\\platform\\bondage\\Bondage.sol",
  "compiler": {
    "name": "solc",
    "version": "0.4.24+commit.e67f0147.Emscripten.clang"
  },
  "schemaVersion": "2.0.1",
  "updatedAt": "2018-07-16T12:12:49.181Z"
}